:4000000000800020110000008D0800008D08000010B500F043FCC04610B51222204B1A60302000F081FE1F4A1F4B1A6000241F4B1C601F4B1F4A1A601F49204A1160204AFD
:400040001A60C02149011F4A11601F4A1A60802149001E4A11601E4A1A60E02149011D4A11601D4A1A60802212061C4B1A601C4A1C4B1A60C0221C4B1A607E3A1B4B1A6038
:40008000013A1B4B1A6002321A4B1A601A49082000F06EFD082000F055FD184B1C6010BD300010400600008004010B40000301400000014040FF0080007F1A060005014097
:4000C000C0FF00800803014042FF00800403014041FF00800C03014043FF008008010B404902040000010B404C010140100101400C01014008010140A50F00000C020B4026
:4001000010B572B60122414B1A7000240FE040486200131959000B00411889881A5AC31858880004104300F0ABFB0134E4B2012CEDD937490C313748543000F077FB802204
:400140005200354B1A80FF3A344B1A70344A354B1A60354A354B1A60EE221202344B1A609922344B1A605532334B1A6099231B04324A1360324A1360324A1360324A1360F9
:40018000324A1360324A13600721324B1960324B1960324803783C22934314221343DBB203702F4A107816230343DBB2137002232C4A13602C482D4A10602D482D4A106043
:4001C00082202D4A10602D482D4A10602D4A136003202D4A10602D482D4A10602D4A136031202D4A10602D4A13602D4B1960992292002C4B1A6030222B4B1A602B4A2C4B61
:400200001A60FFF709FF00F02BFB10BD1C700F40A45A0000245C000000600F4002600F40AA00000800000240FFFF00000002024000030240000402400005024000500F4003
:4002400010500F4020500F4040500F4050500F4070500F402000104000800F4001700F4000700F40000004403100040008000440B66D030008010440000204407162DB0049
:40028000080204401802044000030440929D240008030440000404400804044018040440000504400805044000060440496003000806044010B5064C2378002B07D1054BCA
:4002C000002B02D0044800E000BF0123237010BD5001002000000000485A0000084B10B5002B03D00749084800E000BF07480368002B00D110BD064B002BFBD09847F9E7A1
:400300000000000054010020485A0000C00000200000000010B5134B1A780132D2B21A70114B197801311970597801315970997801319970D9780131D970132A03D9012109
:40034000002000F0D1F8084B9B78022B02D9012001F0A6F9044B1B78022B02D9012001F05BFA10BD800100206C01002010B5104801F08AF900F014F90E4B197900F0B4F824
:400380000D4B1B78002B06D001F08CFA002802D00A4801F079F90A4B1B78002B06D001F079FA002802D0074801F06EF910BDC046505A00006C0100206C0200205C5A0000EF
:4003C000F8010020705A000070B562B601F014FB01F006FB134C6071C00801252840C343D8B201F05DF9607901235840284001F013FA6179042000F00FF901F0ADFB01F013
:4004000071F901F0CBF801F0ABFA01F04FFB064801F0D8FA054801F02FFA054801F07AFB70BDC0466C010020AD0500006D03000015030000F0B583B0FFF7C6FF244C002382
:40044000E05E05F083F9234A234B04F07BFB06000F00224D0623E85E05F078F932003B0004F070FB00221E4B03F048FF06000F000223E05E05F06AF902000B003000390058
:4004800003F03CFF01F0C4FD02000B000020154904F0D2FD0022124B04F054FB05F020F900B2002100F020F8EB880133EB800023E05E00F095FB01236A4613700023537033
:4004C0009370D37013710521684601F063FBB5E7C40000201F85EB51B81E19406C01002000408F400000F03F10B50400002902D101F07CFA00E000200022254B1A70002C41
:4005000006DA830704D4224B5A7064425C600BE0002C06DDC30704D41D4B01225A705C6002E000221A4B5A60194B5B68002B0FD001F016FA164B586803F06CFB011C1548E9
:4005400003F0A6F8144903F0A3F8144B186016E00022124B1A60002000F076FD002000F07FFD002000F088FD002000F091FD002000F09AFD002000F0A3FD01F0A5F9074BBF
:40058000186803F06DF880B201F0B2F910BDC0468001002000409C4D00007A4484020020014B0420185E70478001002070B5184A117A5378CB185BB21372002B03DA0522D5
:4005C000134B1A7204E0052B02DD0022104B1A720F4B1B7A5BB20F4AD45C01252800204000F032FD6008284000F03AFDA008284000F042FDE008284000F04AFD2009284075
:4006000000F052FD6009284000F05AFD70BDC04680010020C8000020F8B504000D0000F093FF0F2020401A4E30603F212940194B1960194C00252570800108434005E060CA
:40064000164FA760164B1B686360200000F048FE01232370E560A760124B1B686360200000F03EFE022323703368DB06FC22D2041343E360A7600C4B1B686360200000F0AA
:400680002FFE00F029FD09491D2000F071FAF8BD880200209C0200208C020020FFFF1F80A0002F40C0002F40E0002F4001070000124A93780133DBB293709378DBB20F2B13
:4006C00002D900220D4B9A700C4B1B78002B0BD00A4A53780133DBB253705378DBB20F2B02D90022054B5A70044A537891785B1A59424B41DBB213707047C0469101002022
:4007000070B580225201444B1A60444B1B68DA0706D49A0706D45A0706D41B0706D406E0002404E0012402E0022400E003243C4B9A78D2B264013B4B9C4664442368DB02FB
:4007400002D46168490D02E06168C90889B2364B500082189000C152314A9178C9B22068000C0F2528404D0069188D005D19A8709178C9B2A5682D0E480041188800181882
:40078000C5709178C9B2A068000CC0B24D0069188D005D1928719178C9B2A068000AC0B24D0069188D005D1968719178C9B2A568EDB2480041188800181885719178C9B2DB
:4007C000E5682D0E4800411888001818C5719178C9B2E068000CC0B24D0069188D005D1928729178C9B2E068000AC0B24D0069188D005D1968729278D2B2E068C0B25100A1
:400800008A1891005B189872FFF752FF226801231343236070BDC04600002F4008002F4091010020A0002F40A0020020F0B50025002711E0BB00C658F3B2FF22964308E05C
:400840006A008A181478A419527822700135013BDBB2002BF4D101370E2FEBD9F0BDC0460323044A1360044A13600022034B1A607047C0463000304030003140000E3F40CF
:4008800010B50A00002105F0D7F810BD10B505F0A7F803680C2B00D1FEE7FEE770B50F4E0F4D13E029686B68AC68002202E001C901C30432A242FAD1E868002202E00021EC
:4008C00002C304328242FAD11035013E002EE9D105F08CF8FFF7AEFDFEE7C046010000004861000010B50E4A136801218B43136000230AE0032B03D89A000A49505800E0CD
:4009000009489900094A885001332F2BF2D9FFF7F7FB034A116801230B43136010BDC04600001040000000008D08000000000020074B1B78272B05D8064B1B78DBB2064A09
:40094000136004E0054B1B78DBB2034A1360704702F3FF0F42F3FF0F20FF0B40C1F1FF0F00230AE0204A12683F210A401F49C95C8A4201D1033303E001332D2BF2D903236D
:400980001B4A12781B2A16D8302B05D1194B1B78DBB2194A136006E0182B04D1174B1B78DBB2154A136016490B681F229343173A13430B6016E0302B05D1124B1B78DBB299
:4009C0000D4A136006E0182B04D10F4B1B78DBB2094A13600A4A13681F218B430B4909780B4313607047C0462CFF0B40B45C000002F3FF0F3FF3FF0F28FF0B403EF3FF0F45
:400A000034FF0B40C3F1FF0FC2F1FF0FC0F1FF0F00230AE00D4A12683F210A400C49C95C8A4201D1033303E001332D2BF2D9032308490868084A02400A60084A944663442E
:400A40001B78DBB2064A13607047C0462CFF0B40B45C000000002240FFFFFFBF4DF3FF0F28FF0B40034B18688023DB05184000D0012070470000224010B50B4A1368012108
:400A80008B431360094B1A68094B1A60094A12685A60FFF765FFFFF74BFF074A116802230B43136010BDC04650000C4034FF0B409801002020FF0B4024002C4030B50023D8
:400AC0000AE0134A12683F210A401249C95C8A4201D1033303E001332D2BF2D903230E490A68022082430A600C4C21681F2291430B4805682A400A4322604168094A116061
:400B0000094A944663441B78DBB2084A136030BD2CFF0B40B45C000024002C4034FF0B409801002020FF0B404DF3FF0F28FF0B40034B1B680220184000D001207047C0469F
:400B400024002C401F2318401E3B8340014A13607047C04600E100E01F2318401E3B8340014A13607047C04680E100E001BE704770B504000D001F2802D90020FFF7F6FFA8
:400B80001034A40080239B059C4664442068256070BDC04670B504000E00032902D90020FFF7E4FF1F2C02D90020FFF7DFFF03252540ED00063501F04CF8A408A400074B63
:400BC0009C46644421680323AB4099430B003100A9401943216001F040F870BD00E400E010B5040006E0084B586801F029F8074B9C46644480231B029C42F4D8024B986872
:400C0000604301F01DF810BDD00000200080FFFF70B582B000F070F9002862D001F019F80500314A116801230B43136000230AE02E4A12683F210A402D49C95C8A4201D104
:400C4000033303E001332D2BF2D903230021294A1160294A1268D20606D1274802681F318A4313390A430260244C2168244A1140244A5A438023DB019C466244D20B013A6A
:400C80005205520D0B001343A0225203134323601D4B1B680193302000F0E2FF1B4A13688021C9050B4313602668194B1E40002407E00120FFF794FF1034A30533430F4ABD
:400CC0001360EE2CF5D90120FFF78AFFFF239B051E430A4B1E60019A0B4B1A60280000F0BCFF02B070BDC04650000C402CFF0B40B45C000028FF0B4034FF0B400800224064
:400D000000F800C040420F003000104000002240FFFF3FC010B5034B1B7B584300F090FF10BDC046D0000020F0B55F4656464D464446F0B483B0040000F08BFF0190FFF726
:400D400091FE002804D0FFF763FE01239A4601E000239A46FFF7ECFE002808D0182C01D0302C07D1FFF7AAFE01239B4604E000239B4601E000239B46E61E2D2E74D8464BD4
:400D80001B78DBB29C4208D8444B1B78DBB29946434B1B78DBB2984631E0424B1B78DBB29C4208D8404B1B78DBB299463F4B1B78DBB2984623E03E4B1B78DBB29C4208D843
:400DC0003C4B1B78DBB299463B4B1B78DBB2984615E03A4B1B78DBB29C4208D8384B1B78DBB29946374B1B78DBB2984607E0364B1B78DBB29946354B1B78DBB29846344B2B
:400E00009F5D2F2F09D92A2C07D91922314B1A60052000F015FF192503E02E4B1D683F231D40BD4206D92A4B9A5D2A4B1A60052000F006FF254B9C4664442378DBB2264A23
:400E40001360264B4A461A60254B42461A600520FFF760FFBD420AD21D4B9A5D1D4B1A60052000F0EDFE02E00020FFF77FFE5346012B01D1FFF7CCFE5B46012B01D1FFF71B
:400E8000FBFD019800F0E9FE03B03CBC90469946A246AB46F0BDC04640F3FF0F41F3FF0F42F3FF0F43F3FF0F44F3FF0F45F3FF0F46F3FF0F47F3FF0F48F3FF0F49F3FF0F27
:400EC0004AF3FF0F4BF3FF0F4CF3FF0F4DF3FF0FB45C00002CFF0B4028FF0B401CFF0B4020FF0B40034B1868C0231B02184000D00120704700010B40034B1B68002B01DA07
:400F0000012000E0002070470000224010B500F0A0FE044A1368C02109020B43136000F09CFE10BD00010B4010B500F092FE08490A68084B1A408024E40122430A600A688C
:400F400013408022120213430B6000F086FE10BD00010B40FF3FFFFF70B5050000F079FE0400FFF7BFFF002803D0FFF7DDFF012100E0002108482840084A1568084B2B4060
:400F8000184310601368012901D1FFF7BFFF200000F063FE70BDC0460404040010020B40FBFBFBFF10B5244B1B685B0715D5234B5B685B070ED5224B596A042001401F4CC5
:400FC00062688A4362605A6A82435A629B69002B00D098470420FFF7BFFF174B1B685B0518D5164B5B685B0510D5154B596A8022D2001140114842688A434260596A114A8A
:401000000A405A62DB69002B00D098478020C000FFF7A2FF084B1B685B030CD5074B5B685B0304D5064B1B6A002B00D098478020C002FFF791FF10BD10020B40E40000206E
:40104000B8010020FFFBFFFF04490A68D2B220239A43400118401043086070470001044004490A68D2B210239A43000118401043086070470001044004490A68D2B208231B
:401080009A43C00018401043086070470001044004490A68D2B204239A43800018401043086070470001044004490A68D2B202239A4340001840104308607047000104401A
:4010C000044A1368DBB201218B430840184310607047C04600010440054B1A6801210A431A601B68194201D1012000E00020704704002F4010B50E4A0E4B1A60FFF7ECFF0E
:401100001D20FFF71FFD0C4A116801230B431360F0231B0100E0013B002B03D0064A1268D207F8D5002B01D1012000E0002010BD0110000000002F4010002F4003B2002B29
:401140000DDB094A1168094B0B400004034313601268074B1340984203D0012002E0022000E000207047C04614002F40FFFF00800000FF7F002809D10C4B19680C4A0A40B8
:401180001A601B68DB040CD501300DE0074B1A68802149010A431A601B680B4203D1012002E0002000E000207047C04614002F40FFEFFFFF70B5841EE4B20D2C35D88C1E8E
:4011C000E4B2052C03D9002B31D1012931D1032A31D8904231D3914231D31C4D2C68240AE4B20F26B44320432E68194C3440000204432C602C686040F0242401204220D1BC
:40120000002B00D002234901C9B29200D2B2114319430E4A1368EE2083430B4313601368034099420FD0ED380EE002200CE002200AE0022008E0022006E0022004E00220BC
:4012400002E0012000E0002070BDC04614002F40FFF0FFFF002809D10B4B1A6810218A431A601B6819420BD001300CE0064B1A6810210A431A601B68194203D1012002E020
:40128000002000E00020704714002F40002809D10B4B1A6801218A431A601B6819420BD001300CE0064B1A6801210A431A601B68194203D1012002E0002000E00020704773
:4012C00014002F40054B18601B681B041B0C984201D0012000E000207047C04604002F4010B503785B01204A944663441F4A41680A431A6003785B01634419681C4A1140C8
:401300001C4A44682240914224D182681A6103785B0163441A6981688A421DD1C2685A6103785B0163445A69C1688A4216D1012252429A6103785B0163449A6901320FD120
:401340000022DA6103785B016344DB69002B09D0012008E0012006E0012004E0012002E0012000E0002010BDA0002F40800080007F007F007FFF7FFF10B503781B01104A85
:40138000944663440F4A41680A431A6003781B01634419680C4A11400C4A4468224091420AD182685A6003781B0163445A6883689A4203D0012002E0012000E0002010BD3C
:4013C00020002F4008008000F7007F00F7FF7FFF70B500240AE063001B199800104B1818FFF7CAFF002805D10134E4B2072CF2D9002500E00125002D0BD00FE023010848E3
:401400006030C018FFF76CFF002806D10134E4B200E000240F2CF1D900E00125280070BDE45C0000002809D10C4B19680C4A0A401A601B689B040CD501300DE0074B1A688C
:40144000802189010A431A601B680B4203D1012002E0002000E000207047C04614002F40FFDFFFFF10B580221206334B1A60334A136801218B431360C8231B0200E0013BA1
:40148000002B03D02D4A1268D207F8D4002B49D01D20FFF761FB2A491D20FFF769FB03211D20FFF777FB1F20FFF748FE002819D1FFF760FE002817D1FFF7B4FF002815D14A
:4014C0000023012201210630FFF774FE00280FD1FFF7C0FE00280DD1FFF7D8FE00280BD001230AE0012308E0012306E0012304E0012302E0012300E00023002B14D1FFF7F6
:4015000067FF002812D10F48FFF7DCFE00280FD10A4B1A6807218A431A601B68194209D0013008E0012006E0012004E0012002E0012000E0002010BD00042F4010002F4006
:40154000711500000110000010B5084B1B78002B02D1FFF787FF00E00020002804D10122024B1A70FFF7C6FD10BDC046E00100207047C04610B500F075F810BD10B500F0CA
:401580001DF810BD10B5044A1368802109060B431360FFF7EFFF10BD0000244010B5064B1B78002B04D1FFF7E9FF0122024B1A70FFF7E8FF10BDC046E2010020154A164B41
:4015C0001A600023154A13601549164A1160164A16490A6007201649086016490B6006381549086015490A60154A13600421154A1160154A1360154A1360154A1360154A04
:401600001360154A1360154A13601268144B1A807047C0460B000002000024404000244001000A0048002440070000800003244004032440100324404400244000022440B9
:401640000402244050002440880E2440C80E2440480F2440080F2440C80F2440880F2440E401002005490B68F0229343603A13430B60034B1A88034B1A60704700040240EE
:40168000E4010020880F244070B50500002402E000F010FB0134285D0028F9D170BDC04604490A687F231A40C301D8B2104308607047C0460002044010B50B20FFF742FA37
:4016C00010BDC04610B500F01DF810BD10B5044A1368802109060B431360FFF7EDFF10BD0000264010B5064B1B78002B04D1FFF7E9FF0122024B1A70FFF7E8FF10BDC0463B
:40170000E801002010B50024184B1C60184A194B1A60194B194A1360194A1460194A1460194A1360194B1C600B20FFF715FA03210B20FFF72FFA16490B20FFF719FA154B69
:401740001C60154B1C60154B1C60154B1C60154B1C60154B1C601022144B1A70144B1C80144B1C60144B1C6010BDC0460000264077080080600026400701008000032640E6
:4017800004032640100326400002264004022640D11C0000C80E2640880E2640480F2640080F2640C80F2640880F26406003002076030020800300207803002010B50E4A5F
:4017C00013685B005B08136000230C490B600C490B600C4804680C49214001600B490B600B490B6010210B4B19701368802109060B43136010BDC046000026406800264042
:401800006C00264060002640FF5CFFFF880F2640C80F26406003002004490A68D2B210239A430001184010430860704700060440014B58647047C0460000002010B50400E4
:4018400000F007FA044A1168044B0B40A4031C43146000F002FA10BD00E400E0FF3FFFFF0222014B1A60704700E100E00222014B1A60704780E100E010B50400FFF7F6FFEB
:401880002000FFF7D5FF0320FFF7D8FFFFF7E8FF10BDC046024B1868400801231840704704030440024B1B68012018407047C04604030440034A117880235B420B43DBB2C9
:4018C0001370704774000F40024A11787F230B401370704774000F40014B18707047C04685000F40014B1878C0B2704765000F40014B18807047C04648100F40014B1888DA
:4019000080B2704788100F40014B18807047C04608100F4010B501E0FFF7F0FFFFF7E2FF0307F9D410BDC04610B54024FF342000FFF7DEFF2000FFF7E7FF00F08AF9074AB4
:40194000117810230B43DBB2137000F086F9FFF7E1FF0020FFF7C0FF10BDC04695000F4010B5064B1B78002B04D1FFF7DDFF0122024B1A70FFF79EFF10BDC046F001002090
:40198000014B18647047C0460000002010B5040000F05FF9044A1368C0218B43A4011C43146000F05AF910BD00E400E00122014B1A60704700E100E00122014B1A607047AC
:4019C00080E100E010B50400FFF7F6FF2000FFF7D7FF0320FFF7DAFFFFF7E8FF10BDC046014B1878C0B2704767000F40014B1878C0B2704764000F4010B500F02AF9044ACB
:401A0000117810230B43DBB2137000F026F910BD94000F40034A117880235B420B43DBB21370704776000F40014B18707047C04686000F40014B1878C0B2704766000F40BD
:401A4000014B18707047C04626000F40014B1878C0B2704746000F40014B18707047C04606000F4010B501E0FFF7F0FFFFF7E2FF0307F9D410BDC04610B50420FFF7E0FF16
:401A80000420FFF7E9FF00F0E4F8074A117810230B43DBB2137000F0E0F8FFF7E3FF0120FFF7C2FF10BDC04696000F4010B5064B1B78002B04D1FFF7DFFF0122024B1A7046
:401AC000FFF7A8FF10BDC046F1010020014B98647047C0460000002010B5040000F0B9F8044A1168044B0B40A4051C43146000F0B4F810BD00E400E0FFFF3FFF0422014B1D
:401B00001A60704700E100E00422014B1A60704780E100E010B50400FFF7F6FF2000FFF7D5FF0320FFF7D8FFFFF7E8FF10BDC04610B500F07BF810BD10B500F037F810BDEB
:401B400010B5044A1368802109060B431360FFF7EFFF10BD0000254010B5064B1B78002B04D1FFF7E9FF0122024B1A70FFF7E8FF10BDC046F2010020044B1B681F221340A6
:401B8000082BF9D0024B18607047C046080225404002254070B506000D00002403E0305DFFF7EAFF0134AC42F9D370BD104A114B1A600122104B1A60104B114A1360072151
:401BC000104A1160104A13600023104A1360104A1360104A1360104A1360104A1360104A1360104A136012680F4B1A807047C0460F000001000025402000254007010080E2
:401C000000032540040325400002254004022540880E2540C80E2540480F2540080F2540C80F2540880F2540F4010020024B1A88024B1A607047C046F4010020880F2540BF
:401C40000230800803D00138FDD1C046C046C0467047EFF3108072B6704780F31088704770B50400FFF7F5FF0500102C05D8104A136803218B43136016E0202C07D80C4913
:401C80000B6803229343023A13430B600CE0302C07D807490B6803229343013A13430B6002E00020FEF762FF2800FFF7D6FF70BD30001040044B1B681F221340082BF9D07E
:401CC000024B18607047C046080224404002244010B5AF4B1B68002B00D09847AD4B1B68DB0702D50022AC4B1A60AC4B1B789B0628D5AB4B1B68DB0507D5AA4A1188C0239E
:401D00009B000B431380012300E00023A44A1268D20706D5A34A118890239B000B4313800123002B0FD09D4A1278D20701D5012200E002229B49088802430A800021974A75
:401D4000117000E00023954A1278920600D417E1934A1268D20611D51022934B1A608F4B1B78DB0701D5012300E002238D4A11880B4313801022894B1A7007E1874A127801
:401D8000120720D5864A126892070AD50222864B1A60844A118888239B000B431380012311E07E4A1278D20703D525217B4A117009E02421794A11707C4A1268002A02D004
:401DC00014397B4A1160754A1278520700D4AEE0724A1278D20749D5764A1268120727D5754A1268754909681F240C40744909686418141B082C09D8002C16D1714A1168A4
:401E0000714B0B401360012308340EE008240CE06B4A11686D48006841186D480068C0B20870116801311160013C002CF0D119E0604A1268520715D5614A1168634800683A
:401E4000411863480068C0B208701168013111601168594A1268914203D204215D4A116000E001235C495D4A116060E04C4A1268920726D502224C4B1A6059490B681D3237
:401E80001A40096880231B020B4000D001239B18544A1168CB1A13601268534B1A60414A118884239B000B431380504B1A68802149020A431A6019684D4A0A401A6001238D
:401EC00035E04C4A1268D2061ED427E0454A1168364A126891421DD2344A1268013A414909688A4204D1402243490A6030490A603C4A11684148006841180978C9B2404851
:401F00000160116801311160354A12681F210A40082ADBD11021384A116008E0354A1268520604D52F4B1A682F4B1A600123002B2CD0244A1168244B0B4013600023314AA0
:401F400013601B4A1360304B1B789B070ED5134B1B78DB0701D5092300E00A23114A11880B43138060220D4B1A700FE0274B1B689B0601D5182200E01022164B1A6005E001
:401F8000064B1B78DB0601D4FFF718FC10BDC046EC0100208C0E2640880E2640600300200C0F264076030020000F264068030020880F2640CC0F26407003002008032640C2
:401FC0008003002060002640FFFEFFFF6C0300204003264068002640ED0F0000C00F2640080226407C0300207803002004022640FFFFFEFF8C0F2640800F264064030020B8
:4020000040022640C80F2640740300206400264030B5204A4B0087B05B0893421CDD1E4A934205DD02000B0003F006F807B030BD02AA00F033F803231840049A059B0128EB
:4020400018D002280DD000281ED0029803990124009400F095FFE9E70022002300F024FAE4E70298039900F01FFA80231B069C466144DBE700900298039900F081FF8023D5
:402080001B069C466144D1E70298039900F00CFACCE7C046FB21E93FFFFFEF7FF0B54E4657464546E0B4DC4B4E0090B01700894676089E4200DC81E0D84B9E4220DCD84ADF
:4020C000002900DC89E1D74B02F0B6FFD54B04000D009E4200D18AE0D34AD44B02F0ACFF02000B0020003A607B60290002F0A4FFCD4ACE4B02F0A0FFB860F960012066E08A
:40210000CB4B9E4200DC8DE0CA4B9E4265DCCA4932158A46924453461B05F51A2900040003F0DEFA03F012FB02000B00200029000A920B9302F080FF0022C04B02F002FD4B
:402140000290039103F0CCFA03F000FB04000D0002000B00029803990C940D9502F06CFF0022B64B02F0EEFC002200230E900F9101F048FA002800D14CE10023002220005F
:40218000290001F03FFA0222431E9841131AAC4A3900019202220AA80092524600F09EFA4B46002B13DA8022120694467B68404263447B60FB686344FB6008E002000B0079
:4021C0003A607B60002200230020BA60FB6010B01CBC90469946A246F0BD02000B0002F02BFFB860F960386079600020EFE7D3228E4B520502F020FF924A934B04000D00AC
:4022000002F01AFF02000B0020003A607B60290002F012FF8B4A8C4B02F00EFFB860F9600120D4E700F05CFF884A894B04000D0002F088FC0022874B01F034FD03F050FA02
:40224000804603F083FA764A764B0690079102F079FC02000B002000290002F0EDFE734B02900391069807996F4A02F06BFC434604000D00049405951F2B30DC013B764A8D
:402280009B009B589E422AD002000B000298039902F0D2FE02000B0005000C003A607B60029803992A00230002F0C6FE049A059B02F0C2FE06000B003200BA60FB604B46AC
:4022C0004046002B00DB82E780231B069C46644461443D607C60BE60F960404277E7049A059B0298039902F0A7FE0B0002003A607B604B0036155B0D05000C00F31A102B42
:40230000CEDD06980799D322484B520502F01AFC04000D0002000B000298039902F08CFE02000B00029803990892099302F084FE22002B0002F080FE04000D000698079904
:40234000404A414B02F0FEFB22002B0002F074FE02000B00049005910898099902F06CFE02000B003A607B604B005B0DF61A0500089A099B0C0002920393312E90DD0698A6
:402380000799B822304B920502F0DCFB04000D0002000B000298039902F04EFE0A00010013000291039202000898099902F044FE22002B0002F040FE04000D0006980799AC
:4023C000264A274B02F0BEFB22002B0002F034FE02000B000492059358E7124B01F062FC104B04000D009E423CD00F4A0F4B01F059FC02000B0020003A607B60290002F0AB
:402400001BFE094A094B01F04DFCB860F96001204042DCE60323BAE6FB21E93F7BD9024000004054FB21F93F3163621A61B4D03DFB213941FFFFEF7FEAFBFFFF000070417C
:40244000C45E00007370032E8A19A33B83C8C96D305FE43F0000E03F445E0000C14920259A837B39D3220D4B520501F01BFC0C4A0C4B04000D0001F015FC02000B002000F8
:402480003A607B60290002F0D7FD054A054B01F009FCB860F9600120404298E661B4D03D7370032E8A19A33BF0B54F464646C0B487B000920193754B4F00814688467F0818
:4024C0009F4263DC03F00CF9002800D1DAE04A4643464846414602F035FB04000D006C4A6C4B02F02FFB6C4A6C4B01F0DBFB22002B0002F027FB6A4A6A4B02F09DFD22007B
:402500002B0002F01FFB684A684B01F0CBFB22002B0002F017FB664A664B02F08DFD22002B0002F00FFB644A644B01F0BBFB22002B0002F007FB029003910022604B200079
:40254000290002F0FFFA029A039B06000F002000290002F0F7FA009A019B04000D004846414602F0EFFA02000B002000290002F063FD02000B003000390002F05DFD020029
:402580000B0000204F4902F057FD70E002000B0002F0D8FA04000D003D4A3E4B02F0D2FA3D4A3E4B01F07EFB22002B0002F0CAFA3B4A3C4B02F040FD22002B0002F0C2FA5F
:4025C000394A3A4B01F06EFB22002B0002F0BAFA374A384B02F030FD22002B0002F0B2FA354A364B01F05EFB2B00220002F0AAFA354B029003919F429FDD344B00229F42C6
:402600003ADC334900207B182E4916001F0002F013FD049005910022294B2000290002F091FA32003B0002F007FD029A039B06000F002000290002F085FA009A019B04007B
:402640000D004846414602F07DFA02000B002000290002F0F1FC02000B003000390002F0EBFC02000B000498059902F0E5FC07B00CBC90469946F0BD164B0026049205939B
:40268000154FC8E700200F49F1E7C046FFFF3F3ED43888BEE9FAA8BDC4B1B4BD9EEE213EAD529C804F7E923E9015CB19A001FA3E7751C1166CC1563F4C5555555555A53F77
:4026C0000000E03F0000F03F3233D33F0000E93F0000E0FF0000E73F0000D23FF0B556464D4644465F46F0B4904CA544099119001400A89A0B938E4B9200D2580B00029092
:40270000013BE01E18211D0016000892009300F07DFEC3430200DB171A401300110001330E929A009B1ADB001B1906934C1B761918D4A99BA5009C46361926AF6544013667
:4027400007E0286803F002F8013403C70435B44208D0002CF5DA00200021013403C70435B442F6D1089B002B01DA00F0FDFB76AB0A939A46009B0B9A9946089B94469B4612
:40278000D300E3449C46029A059362449046009B002B00DABBE14B46DC0026AB9C4600260027029D64442268636803CD02F0CAF902000B003000390001F074FA083C0600A4
:4027C0000F004545EFD15346C0C39A4601239C46E144D945DBD1089A564913008C4663449B0012A8844619000298614484460D910599043361448B4612A98C4663440F93C2
:402800000592059A0A98D30019000C938C46030063441E685F68002A34DD12AB99461300454A804694466344DB00984474AB9A460022424B3000390002F084F902F050FF2E
:4028400002F084FF00223E4B04000D0002F07AF902000B003000390002F0EEFB02F040FF4B4601C39946434620001A685B68290001F018FA08235B429C46E04406000F000F
:40288000D045D5D1069B30001A003900994600F0C3FCFF2300229B0504000D0002F052F900F022FC0022274B02F04CF902000B002000290002F0C0FB04000D0002F010FF8B
:4028C000804602F043FF02000B002000290002F0B3FB4C4606000F00002C00DCF8E0059B18205A1E920012AB9B58001B19000141884481405B1A12A98B501722121B134107
:402900000793079B002B4BDD01239C46059BE044002B00DCF2E280251096119712AB0021002409486D04059F19E0C04684FDFFFFCC5F0000FEFFFF3FFFFFFF1F0000703E5A
:402940000000704100002040FFFFFF00002A02D0AA1A1A600134013104338F4209DD1A68002CF3D0821A01311A60012404338F42F5DC109E119F069B002B0EDD012B00D1F1
:40298000B1E0022B09D1059B12A95A1E920012AB9B5810939B029B0A8B50079B022B7ED0002300223000390000F02CFE059B002800D16BE208995A1E914210DCBF490F9858
:4029C0008C4612A963448C4600219B0063441C68043B21438342FAD1002900D0B5E0089B12AA013B9B00D358002B00D084E201220D9B043B596801320029FAD005990B00CD
:402A00008C46013362440792934242DC0E9A9446A99A634492460B9A9B00944626AA90469A44059B0A9A6344DB0098440C9B94469946079BE144DB00634405935346186880
:402A400002F084FE434618605960009B002B23DB444600260027029D2268636803CD02F071F802000B003000390001F01BF9083C06000F005D45EFD14B469E60DF60042343
:402A80009C460433E2449C46059BE144E0449945D4D1079B0593B4E600260027ECE732003B000020864902F0C7FA06000F00002C00D175E7069A0020814900F0ADFB0200F4
:402AC0000B003000390002F0B7FA06000F0067E7069B002B12D1059B12AA013B9B00D558EB1507930DE7059B12A95A1E920012AB9B5810935B025B0A8B504EE70022714B57
:402B000000F0A4FD00280ED10023079348E7534600260027C0C39A4601239C46E144D94500D034E657E601239C4601330793059BE044002B00DDEEE632003B0000206049AE
:402B400002F07AFA06000F002AE743460B93069B12A8183B190006939300C3580092002B0FD156481300844612A8634484469B006344043B5868013A18390028F9D0009201
:402B80000691069A00204E4900F046FB009B04000D00002B00DAB3E112AA94469F00DB0067449C460A9A0593624493461600386802F0CCFD22002B0001F0C4FF424B3060CA
:402BC000716000222000290001F0BCFF083E74AB04000D00043FB342E9D100239A464EAB0293089B99464B4600260027002B21DB8020364B5D469846C0053549002600273B
:402C0000002408E008239C460835E044A24511DB4346186859682A686B6801F093FF02000B003000390001F03DF8013406000F00A145E7DA029A53469446DB0063441E60F9
:402C40005F6001239C46093BE2449C4674ABE3449B45C8D1029B9946A89B022B00DD82E0002B37DC1DD1059B00254B441E000024326873682800210001F014F8009B05003C
:402C80000C00083E5A1E0092F2D2079B002B03D080231B069C4664442A00230009990A604B6007200B9B18409F239B009D443CBC90469946A246AB46F0BDC046FFFFFF3F2A
:402CC0000000F03F0000E03F0000703EE05F0000FB21F93F059B00204B441E0000214CAF32687368083E00F0DDFFBE42F8D1079B002B24D08023099A1B06CB18106053603E
:402D00000B0002004E984F9902F096F9009B002B0BDD012450AD0CCD00F0C4FF009B0134A342F8DA079B002B03D080231B069C4661440B00020009998A60CB60B1E702000B
:402D40000B00099C226063600B0002004E984F9902F072F9009B002BDBDC0B00020009998A60CB609DE7A89B032B9AD1009B002B00DCE3E07F4A059B94464B441E685F6801
:402D8000009B63449A46DB004B4498464CAB9B4643465C681B681800210032003B000290039100F07FFF04000D0002000B000298039902F041F93B00320000F073FF4346EF
:402DC0009860D9601C605D6008235B429C46E04426002F00C345DBD1009B012B00DCADE0059BC8464B441E685F685346DB009B46D844434630005C681B6839000093019406
:402E00001A00230000F04EFF04000D0002000B000098019902F010F93B00320000F042FF43469860D9601C605D6008235B429C46E04426002F00C145DBD15D460027002479
:402E400008354D4450AE2A686B683800210000F029FF083D07000C00AE42F4D1079B002B71D08021099A4E9B090613604B468C465B686444634453604B469B6817619360BF
:402E80004B46DB6854616344D3600AE7994643460B93069B30005A42390000F0BDF90022354B04000D0000F0D1FB002832D0334B00222000290001F045FE02F011FC4A4627
:402EC0000600970002F042FC00222B4B01F03AFE02000B002000290002F0AEF802F000FC12AAD0514A46069B0132183300920693930012AAD65044E601227FE500243AE548
:402F0000A89B022B14DC002B0FDC00D0C9E600250024BAE64B46200029009E0002F0E0FB12AB98514B4600932BE600200021DEE64EAB9946A89B032B00D0B2E6079B002714
:402F40000024002B8DD14E9A4F9B09990A604B604B469A68DB68009201938A60CB603A0023000A614B619CE676AB0A930B9BDB00059330E4FFFFFF1F000070410000703EAE
:402F8000F0B54F464646C0B487B000920193464A4B00814688465B08934205DC02F0A0FB4146031E484666D04A4643464846414601F0C8FD04000D0002000B0048464146E1
:402FC00001F0C0FD394A3A4B06000F002000290001F0B8FD374A384B02F02EF822002B0001F0B0FD354A364B00F05CFE22002B0001F0A8FD334A344B02F01EF822002B0092
:4030000001F0A0FD314B324A00F04CFE0E9B02900391002B34D00098019900222D4B01F091FD029A039B049005913000390001F089FD02000B000498059901F0FDFF2200ED
:403040002B0001F07FFD009A019B01F0F5FF224A04000D00214B3000390001F073FD02000B002000290000F01DFE02000B004846414601F0E1FF07B00CBC90469946F0BDB5
:4030800002000B002000290001F05CFD124A134B01F0D2FF32003B0001F054FD4A46434600F000FEE7E7C046FFFF3F3E7CD5CF5A3AD9E53DEB9C2B8AE6E55A3E7DFEB1571E
:4030C000E31DC73ED561C119A0012A3F1111813FA6F810110000E03F495555555555C53F49004B0819007047454AF8B5564692464B005B0D9A444D465F4644465246F0B450
:40310000894605000C000E000700132A22DC002A47DB52463B4B134198460B0042461340034311D0384A394B00F0BCFD0022002300F082FA002805D0002C41DB4E464346F4
:4031400000279E43380031003CBC90469946A246AB46F8BD5246332A08DD8023DB009A45F2D102000B0000F09DFDEDE7284A9446012263445242DA4093460242E4D0224A3D
:40318000224B00F08FFD0022002300F055FA0028D8D0002C1ADB5B464E469F4338003100D2E7194A194B00F07DFD0022002300F043FA0028C6D0002C16DB00270026C1E705
:4031C000802352465B0313419944B7E75346142B12D03423524601279B1A9F407F19AF429B415B429944D6E76400640825430027002DA7D0074EA5E7133B9C46E144CAE77C
:4032000001FCFFFFFFFF0F009C7500883CE4377EEDFBFFFF0000F0BF4B0070B55B0D14000A00002B1AD14B005B08034315D00022224B01F087FC224B0A009C4222DB4B00FE
:403240005B0D363B1F4DE318AB4220DC002B0DDD1D4C1B0522401A43110070BD1B4DAB42F0D102000B0000F01DFDF6E71D00353518DA174B02009C420ADC0B001548164918
:4032800000F032F8134A144B01F05CFCE5E702000B001248124900F027F8104A104B01F051FCDAE7084C363322401B051343190000220C4B01F046FCCFE7C04600005043F5
:4032C000B03CFFFFFE070000FFFF0F80FF07000050C3000059F3F8C21F6EA5019C7500883CE4377E0000903C30B54A00DB0FDB0752081A43110030BD002243088B4274D395
:4033000003098B425FD3030A8B4244D3030B8B4228D3030C8B420DD3FF22090212BA030C8B4202D31212090265D0030B8B4219D300E0090AC30B8B4201D3CB03C01A52418E
:40334000830B8B4201D38B03C01A5241430B8B4201D34B03C01A5241030B8B4201D30B03C01A5241C30A8B4201D3CB02C01A5241830A8B4201D38B02C01A5241430A8B4265
:4033800001D34B02C01A5241030A8B4201D30B02C01A5241CDD2C3098B4201D3CB01C01A524183098B4201D38B01C01A524143098B4201D34B01C01A524103098B4201D399
:4033C0000B01C01A5241C3088B4201D3CB00C01A524183088B4201D38B00C01A524143088B4201D34B00C01A5241411A00D20146524110467047FFE701B5002000F0F0F840
:4034000002BDC0460029F7D076E7704703460B437FD4002243088B4274D303098B425FD3030A8B4244D3030B8B4228D3030C8B420DD3FF22090212BA030C8B4202D31212FD
:40344000090265D0030B8B4219D300E0090AC30B8B4201D3CB03C01A5241830B8B4201D38B03C01A5241430B8B4201D34B03C01A5241030B8B4201D30B03C01A5241C30ADD
:403480008B4201D3CB02C01A5241830A8B4201D38B02C01A5241430A8B4201D34B02C01A5241030A8B4201D30B02C01A5241CDD2C3098B4201D3CB01C01A524183098B429B
:4034C00001D38B01C01A524143098B4201D34B01C01A524103098B4201D30B01C01A5241C3088B4201D3CB00C01A524183088B4201D38B00C01A524143088B4201D34B0034
:40350000C01A5241411A00D201465241104670475DE0CA0F00D04942031000D34042534000229C4603098B422DD3030A8B4212D3FC22890112BA030A8B420CD389019211A8
:403540008B4208D3890192118B4204D389013AD0921100E08909C3098B4201D3CB01C01A524183098B4201D38B01C01A524143098B4201D34B01C01A524103098B4201D30A
:403580000B01C01A5241C3088B4201D3CB00C01A524183088B4201D38B00C01A5241D9D243088B4201D34B00C01A5241411A00D20146634652415B10104601D34042002B89
:4035C00000D54942704763465B1000D3404201B5002000F005F802BD0029F8D016E770477047C0468446101C62468C46191C634600E0C0461FB501F03BFA002801D400211B
:40360000C8421FBD10B501F08FF94042013010BD10B501F02DFA002801DB002010BD012010BDC04610B501F023FA002801DD002010BD012010BDC04610B501F0B5F90028DE
:4036400001DC002010BD012010BDC04610B501F0ABF9002801DA002010BD012010BDC0469E2110B5C905041C02F0E2F8002803D1201C00F0ADFA10BD9E21201CC90500F0BB
:4036800021F900F0A5FA80231B069C466044F2E7F0B5564644465F464D46F0B444024600C70F83B08846650A360EBA463DD0FF2E22D00023EC00802599469B46ED04254388
:4036C0007F3E43465C025800DB0F640A000E984636D0FF2830D080230021E400DB041C437F38301A0190484642460843724E800030587A4013008746002D44D108239946D6
:40370000063B9B46DDE70122FF2000241A406402C305640AD2071C431443200003B03CBC90469946A246AB46F0BD002D20D104239946033B9B46C4E7002C17D1022102E0AB
:40374000002C0AD10121321A01924A4643460A435A48920082587B409746200002F072F8431F76309C4040420021BAE70321B8E7280002F067F8431F9D40002376304642C5
:4037800099469B469DE70C239946093B9B4698E780240022E403FF20B9E70024C2468B465A465346022AAED0032A7DD0012A31D1012200201A400024A9E70122101A1B283F
:4037C00056DD1A4000200024A1E78023DB031D424BD18023DB032B435C02640A3A00FF2095E76D016001854230D2019A0024013A01921B220127290064006D00002901DB5B
:40380000A84201D82D1A3C43013A002AF3D16A1E95412C4301987F300028CEDD620704D00F222240042A00D00434220103D5244A019814408030FE2800DD64E70122A401CC
:40384000640AC0B21A4062E72C00A9E72D1A1A220124CFE76B02BCD500248023DB031C436402640A4246FF2051E71C42B3D1F4E721002022C140101A8440621E94410C4343
:40388000620704D00F222240042A00D00434620104D5012201201A40002438E70122A401640A1A40002032E78023DB031C436402640A5246FF202AE7206000006060000060
:4038C000FFFFFFF7F8B54A024E0043024400240EC50F9B09360EC90F9209FF2E00D183E001204140A01BA9425CD0002800DC95E0002E1CD1002A00D081E05A0704D00F2279
:403900001A40042A00D004335A013BD50134FF2C00D191E001209B015B0AE4B205405B02E4055B0AED0723432B431800F8BDFF2CE3D08021C9040A431B2800DD90E016006F
:403940002021C640081A8240511E8A4132439B1A5A0115D59B019E09300001F073FF0538864084426CDC041B330020200134E340041BA640721E964100243343BDE70D00EB
:403980005A07BCD1DF0801231D40FF2C33D1002F00D190E08022D20313003B435B025B0AFF24BCE700284FDD002E2ED0FF2CA4D08025ED042A431B2800DD97E0160020256E
:4039C000C640281A8240501E824132439B185A01D5D50134FF2C6DD001227B481A405B08034013430D0088E7002A00D07AE777E7031EC5D100257B025B0AE4B28FE701384E
:403A00000028A4D0FF2C97D177E7002A00D174E701380028DAD0FF2CCDD16EE7002821D1601CC0B2012858DD80279E1AFF0437402FD0D61A0D008FE701231D4000236EE7D0
:403A4000624B241A334058E7002851D1601CC6B2012E33DDFF282DD09B185B0804004CE7012274E7002C1AD0FF2E1FD08024E404404223431B2800DD96E01D002024C5409B
:403A8000201A8340581E83412B43D31A34000D005EE7002E00D05FE700250024ABE7002B44D0C0430028F0D0FF2EE3D11300FF240D0022E70D00FF24002330E7002C5DD1B4
:403AC000002B7DD0002A00D117E79B185A0100D456E73E4A040013400FE7002C1ED1002B2FD1002A65D013000D0006E701226DE7002C1FD1002B59D0C04300280BD0FF2E95
:403B00004FD01B285EDC1D002024C540201A8340581E83412B439B18340058E7002B1CD1002A49D013000D00FF24E6E6130034000D00E2E6FF2E34D08024E404404223438D
:403B4000DFE7002A00D1D8E68027981AFF04074000D14DE7D31A0D00CFE6FF24002A00D1CBE68020DB08C003034204D0D208024201D113000D00DB00FF24BEE6002B10D084
:403B8000FF24002A00D1B8E68020DB08C003034203D0D208024200D11300DB000D00FF24ABE61300FF24A8E601236EE713003400A3E6002700251EE780270025FF03E9E652
:403BC00013009AE60123A6E7FFFFFF7DFFFFFFFB4302590A4300C20F1B0E00207E2B0EDD9D2B0DDC802000040143952B0BDC9620C31AD9400B005842002A00D1180070471B
:403C0000034BD018FBE7963B99400B00F3E7C046FFFFFF7F70B5002830D0C317C5185D40C40F280001F00EFE9E231B1A962B0DDC9622D21A95406A02520AD8B25202C0053E
:403C4000520AE40702432243100070BD992B19DC9922D21A9540124A2A40690704D00F210D40042D00D00432510103D50C4B1A409F231B1A9201520AD8B2DFE700240020CE
:403C80000022DBE705222E00121AB921D6402A00C91A8A40551EAA4135001543DBE7C046FFFFFFFBF8B556465F464D464446F0B40F00FD0FAA4609037C002E005F00450F0A
:403CC000490A7F0D2943C5001803BC46400A570F640DDB0F3843D2009A4500D1AAE06646A61B002E00DCFFE06346002B39D10300134300D0D9E06B0709D00F232B40042BD8
:403D000005D02B1DAB42AD416D4249191D000B0200D482E0CA4B01349C4200D1FEE00A005646C84BED081A405007640552020543120B640D002112030B0D1B056405120B5D
:403D40001A436308C04CF60714401C43640064083443280021003CBC90469946A246AB46F8BDB74B9C42C6D080231B041843382E00DDEBE01F2E00DD1EE120239B1B9C464F
:403D800003006746BB40984613004746F3403B436746BA40571EBA4113430200F240EB1A9D42B6411D008A1A7642911B0B0231D54A02560A002E00D1B4E0300001F042FDD6
:403DC0000300083B1F2B00DDB5E020222900D21AD1409E400A009D4032439C4200DDB1E01C1B631C1F2B00DDD5E0202114002800C91A8C40D8408D400443DA40681E854183
:403E000011002543002476E74146314300D134E2310045466B0700D06FE756464807ED08C9080543864B9C4235D00A036405120B640D7FE76346E31A9B46002B00DC8BE042
:403E40006746002F3CD07E4FBC4200D153E780273F0438435B46382B00DCF7E00243501E82410020D2B253194218AB4289411D00494289180B02CDD5714B01349C4200D139
:403E80003DE101206F4A6B080A4028401843D507054351082FE72B000B4300D1CBE180231B030B431A03120B44E7013E002E6DD1AE1AB5429B41091A5B42C91A350075E713
:403EC0000700174300D116E701235B429C46E3445B46002B00D0E0E0AA18AA429B4109185B4259181500C5E7002E75D1661C7605760D012E00DCF3E0AE1AB0464545BF41D9
:403F00000E1A7F42F61B370200D48FE0551BAA42B641411A76428E1B9A464BE756460022002507E7280001F08DFC20300300083B1F2B00DC49E72A002838824000259C423C
:403F400000DC4DE73F49E41A1140D4E60243501E8241D3B2002222E7002B00D0F3E0631C9C465B055B0D012B00DC9FE0344B9C4500D1C3E0AA180918AA42804140424118BD
:403F8000CD075208154349086446B4E62C4B9C4200D0ECE6AFE611001F3CE1400C00202B00D17FE04021CB1A9A4015436A1E95410021254300242DE733000700203BDF40FB
:403FC0003B00202E70D04027BE1BB0400243501E824113430022E2E6002C4FD0184CA44500D1ABE08024240476422143382E00DDDFE01F2E00DD43E12027BC1BA1460C00D5
:404000004F46BC40A0462C004746F4403C434F46BD406F1EBD41F1402C43151BAA429241411A5242891A64469A46BFE641464546314300D0BEE6002600240025F2E6C046E9
:40404000FF070000FFFF7FFFFFFF0F801F2B59DC2027FF1ABC46070063469F405B46B9461700DF40B8464F4643461F4363469A40531E9A415B463A43D840F4E60C002C4313
:404080005CD0F643002E55D1551BAA42A441411A6442091B9A46644688E6964FBC4200D0D8E628E6002280E700208FE70B002B43002C00D0C2E0002B00D101E103001343FD
:4040C00000D118E6AB18AB42B6410918764271180A0200D409E1884A1D00114064460AE6002C5BD10E002E4300D08AE00100114300D1C2E0010015009A46FCE564460021C9
:4041000000258FE620235B429C46DC4463460700DF405B46BC46202B00D1ACE040235F46DB1B98400243501E8241634613431A00002098E66F4CA44500D057E7010015001E
:4041400064469A46D7E5002C39D10C002C436ED0DB43002B1AD0674CA44568D0382B00DDA4E01F2B00DDAEE020240F00E41AA740B9462F00DF40B846A3464F464446274395
:404180005C46A5406C1EA541D9403D43AD1895429B4109185B42591864466BE60C002C4315D1010011437BD0010015009A46514CA1E50D43691E8D410021ECB22DE74D4CA2
:4041C000A44534D0802424045B422143C6E7040014434ED0ED084C072C438025C9082D03294208D0C6082E4205D1D208410711430C009A463100620FC900E50011433D4C9C
:4042000079E50600164300D175E5AE1AB0464545BF410E1A7F42F61B370200D4F4E5551BAA42B641411A7642891B9A4663E50100150064465FE5002200257BE5002B3BD05B
:404240000300134315D0ED084B072B438025C9082D03294207D0C4082C4204D141070B002100D2081343C9005A0F1143DD00214C41E5204C3FE5002054E700260025D1E5CE
:4042800034000F00203CE7403C00202E2BD04027BE1BB1400D43691E8D4100212C43BCE6802100260903134C0025BBE50D43691E8D410021EDB269E7010015000D4C1AE591
:4042C0000100150017E51C000F00203CE7403C00202B0CD04027FB1A99400D43691E8D410021254352E70021D4E71D0092E50021F3E7C046FF070000FFFF7FFFF0B55646AB
:404300004D4644465F46F0B41D000E034C00CB0F87B0070092468146360B640D98466AD06D4B9C4235D08022430F12041343F6001E43C3009946694B00279C4600236444A0
:4043400002932B0368001B0BED0F51469B46400D009500D178E0604B98426CD05B46DA004B0F802109040B4313439B465346D9005A4B9C46002360444246201A6A409246A0
:4043800001901F430F2F00D9B0E05548BF00C0598746374300D088E0002399460233082700260293CDE74346B34649460093029B009A9246022B00D0BFE10021534601226D
:4043C000002689461A40444B002136030C0D2405360B2643434C1B0526401E437600D207760816434846310007B03CBC90469946A246AB46F0BD330003434FD0002E00D1BD
:40440000BCE1300001F01EFA03000B3B1C2B00DDADE11D220100D31A08393A008F408E40DA40B9461643304B00279C46002360444442029385E753465A4613432CD1002373
:4044400000219B46023397E70B4320D05B46002B00D19EE1584601F0F5F903000B3B1C2B00DD8FE102005946083A91408B461D21CB1A5146D9400B0059460B4351469B460B
:404480009140194B9C4660444042002374E7002300219B4601336FE703236DE70023994601330427002602934BE703230C27029347E70122D51A382D00DCB0E153461A40D7
:4044C00000210023002689467EE700238026994600223603004B77E7FF07000001FCFFFFA0600000FFFF0F80F30300005E4500D972E100D16DE1019B4D46013B01930023DE
:40450000340002935B461E020B0E1E430B020393330C994633041B0C494620000093FEF7EBFE009B370043430600494620009846FEF768FF2C0C09040C43A04509D9E41999
:40454000731EA74200D95CE1A04500D859E1023EE4194346E41A49462000FEF7CDFE0300009A80465343494620009B46FEF74AFF2A040904120C0A4393450DD94346D219E2
:40458000013B974200D93AE1934500D837E102235B429C46D219E0445B46D21A4346360433439B460399180C0B0C1D00059309045B46090C0C001B041B0C44430491594377
:4045C0006B4368431B190D0CEB189C4203D980246402A44660441C0C09041B04090C20185D18824200D2DEE000D1D7E0161A029B9C465D1BAC459B415B42F61AB74200D163
:4046000006E149463000FEF777FE009B04004343494630009846FEF7F5FE2E0C09040E43B04509D9F619631EB74200D9F3E0B04500D8F0E0023CF6194346F31A49461800F5
:404640000293FEF759FE009B06004343494602989846FEF7D7FE2D0409042D0C0D43A84509D9ED19731EAF4200D9D6E0A84500D8D3E0023EED192404210043463143049E0E
:40468000059A3000ED1A0B040C0C1B0C58436643534354439A19030C9B189E4203D980225202944664441A0C00041B04000C14191B18A54250D34DD001231943964A019BE4
:4046C00094466344002B00DCF3E64A0709D00F220A40042A05D00A1D8A42894149428B4411005A46D20108D55A468C4B1A4093468022D2009446019B6344894A934200DD79
:404700005BE65A46C908500708435602514601225B058146360B5B0D0A4055E680231B031E4211D05A461A420ED15E461E433603360B2A0089467B4B46E6032B00D1E1E0B7
:40474000012BBBD11A40BBE61E433603360B4246744B39E6002BB1D07D194A1EAF4252D91100A542A8D1039A9A42A5D1A6E703003E00283B9E400023994654E601F062F889
:40478000203041E603005246283B9A400021934677E6504601F056F820305EE6029B0026AB4200D323E7039E0299B44661448846B045B6415B467642F619B218013B0291C7
:4047C000974213D290424FD800D18EE0161A9B460DE7894500D28EE674084B46F60735005B081D434B46DB0702938BE69742EDD10399029CA142E5D93E1A9B46F7E69846C9
:40480000CAE61E00A5E6AC423ED874D0110053E70121494252E71C000EE71E002BE71F2D3CDC20230A0058465B1B9840EA4099400243481E81415E461143EE404B0709D007
:404840000F230B40042B05D00B00191D99429B415B42F61833023CD55346012200211A40002601238946AFE502235B429C46039CE344A446029B63449846A045B6417642E0
:40488000F6190293B218B1E603988A1E41008142B6417642F619AD19039161E71F225242D31A5A46DA401300202D29D040225846551BA8400143481E814107200B431840E6
:4048C0000026002809D00F2200261A401900042ABBD10B0070077602360BDB0803439946012253461A4000236EE502998D42BBD89B4600267BE603989842C5D3110032E7A2
:404900000020D7E780265B4636031E433603360B009A8946034B57E5FF030000FFFFFFFEFE070000FF070000F0B55F4656464D464446F0B41F035C00DB0F9A46194B0E03DF
:404940004D00C90F8046360B6D0D8B4691463F0B640D9D4219D0134B9C421BD00123A54206D018003CBC90469946A246AB46F0BDBE42F6D1C845F4D1D34510D0002DF0D194
:40498000304303005A1E9341EBE7310001230143E7D1E0E73A430123002AE2D1DEE70023DFE7C046FF070000F0B55F46444656464D46F0B41F033C0B2C4F0E034D00A34641
:4049C0005C008446360B6D0DC90F9046640DDB0FBD422BD0254FBC422ED0002D0ED130430700814678427841002C17D15F463A4314D14B460020002B0AD006E0002C02D1ED
:404A00005846024301D099421AD00123484218433CBC90469946A246AB46F0BD0028F2D058425841012240421043F1E737000743D0D002204042EBE75F461743CDD0F8E7C2
:404A4000A542E2DC05DB5E45DFD808D000205E45DED248424841012340421843D8E7C445D3D80020C445F4D3D2E7C046FF070000F0B55F464D4644465646F0B41C03240BDB
:404A8000A4462F4C0F034D005E00C90F80463F0B6D0D8B469146760DDB0FA54220D0284CA64222D0002D12D1384344424441002E20D0002C0DD05C42634101245B421C4318
:404AC00020003CBC90469946A246AB46F0BD002E17D05B4519D05B465C4201231C43EFE7390002240143EBD1D9E7614602241143E6D1D7E761460A43DBD100240028DFD0DD
:404B0000E9E761460A43E4D1E5E7B54203DD01225C421443D4E7B542CDDB6745DBD809D000246745CCD259464C426141012449420C43C5E7C845CED80024C845F3D3BFE777
:404B4000FF070000F0B55F4656464D464446F0B40D0399464E002B0B87B00700924680469B46760DCC0F002E69D06D4B9E4235D05B468022DD001204430F13432B439B46C9
:404B8000C3009846674B00279C460023664401934A4615035000D20F53462D0B400D914600D176E05E4A90426CD080225B0F120413435C4AED0094461D4353460022DB00B2
:404BC000604449463618701C6140029017430F2F00D9AFE05448BF00C759BF465B461F4300D088E000239B469846023308270193CEE74946022A6AD0032A00D109E2012A22
:404C000000D0BBE111400022002300259046CCB200212D030A0D12052D0B1543434A1B0515401D436D00E4076D0825434046290007B03CBC90469946A246AB46F0BD034374
:404C400052D05B46002B00D18AE1584600F0FAFD03000B3B1C2B00DD7BE11D22D31A3A0001005D46DA4008398D4013008F402B439B46B8462E4B00279C460023604446428A
:404C8000019385E752462A432CD100250023022297E752462A4321D0002D00D154E1280000F0D0FD03000B3B1C2B00DD46E11D21CB1A51460200D9405346083A954093400E
:404CC0000D431B4A944660444042002279E7012400220C40124B0025904699E70025002301226EE703226CE700239B4698460133042701934CE703230C27019348E7002393
:404D00008025984600242D03054B81E75D464346019A6FE75D4643462100019A6AE7C046FF07000001FCFFFFE0600000FFFF0F80F30300004246120C91461A0C94464246BF
:404D400017044A461B041B0C5A43604690464A4642431000039262461C003F0C7A437C4342440192220C9246019A5244904506D98246802040028046C24450460390100C25
:404D8000049048462404240C1204121905922A0C2D042D0C68432C00824648467C4350438146200C8046574357444744BA4503D9802040028046C144380C3F04B846484470
:404DC0002404240C01900498A044404404905846000C814658460404200C8246070048465F434C464343604660436446834650464443380C8446E4186444A34203D98023E9
:404E00005B029C46E34448463F04230C3F0C2404E419574668436F4384464D46504655434243380C814662444A445B44944503D9802040028446654403983F048346049867
:404E40003F0C8446E344C345804140428246100484460198674484466744A344BC46A345A4419946D44464428742BF41D4458041E144A04699459B417F424042C8440743F8
:404E8000120CBA18A045A4415F423B0064422343D71843467D19DB0D6D021D435B465A02059B1A43531E9A415B46DB0D1A4343465B021343EA0107D501225C08134023431C
:404EC000EA07029E13436D08574AB218002A4BDD580709D00F201840042805D0181D98429B415B42ED180300E80104D54F4A15408022D200B2184E48824200DDE7E6012432
:404F0000DB08680718436D02530580462D0B5B0D0C407DE6802259461203114208D0154206D115432D0398462D0B4C46414B6FE65D4615432D032D0B3E4B69E6030055464F
:404F4000283B9D400023BCE6504600F07BFC2030A8E60300283B9F400023BB46984689E600F070FC203073E60124A61A382E07DD00220C4000230025904649E6029EA3E782
:404F80001F2E20DC20222C001800921BF040944093400443581E83411C43F540630709D00F232340042B05D023001C1D9C4292415242AD182B021FD5012400220C4001236F
:404FC0000025904624E61F202C004042821AD440202E1CD04022961BB5402B43581E83410720234318400025002809D00F2200251A401C00042AD8D1230068076D022D0B3E
:405000000124DB08034398460C40002300E60025E3E780220124120315432D0398462D0B0C40044BF4E5C046FF030000FFFFFFFEFE070000FF070000F0B557464E464546A3
:40504000E0B40E001100F20F9246C500420F180337037400400A4E0F7F0A3043CF4E17435A00640D520DDB0FC900B24200D1E5E001267340A61AB446534500D1AFE0002E8A
:4050800000DC0DE1002A3AD103000B4300D0E4E06B0709D00F232B40042B05D02B1DAB42AD416D427F191D003B0200D488E0BB4B01349C4200D110E13A00B94B51461A4016
:4050C00001235007ED08520264050543120B640D0B400021280012030D0D120B64052D0515436208AF4CDB072C401443640064081C4321001CBC90469946A246F0BDA74B6C
:405100009C42C5D080231B0418436346382B00DDFDE01F2B00DD30E1624620239B1A02009A40664690460A009940F24046464B1E99413243114363460200DA40691A8D421F
:405140009B410D00BA1A5B42D71A3B0235D57A02530A98464346002B00D1C4E0404600F071FB0300083B1F2B00DDC5E020222900D21A4746D1409F400A009D403A439C42B3
:4051800000DDC0E01C1B631C1F2B00DDE4E0202114002800C91AD8408C408D400443DA40681E854117002543002471E7424663461A4300D14CE2674645466B0700D069E7C1
:4051C000012351467807ED08FA080B40054373498C4238D012036405120B640D79E7002E00DC9AE0002A47D06C4A944200D14FE78022120410436246382A00DC08E1014377
:40520000481E81410022C9B24919D219A942BF410D007F42BF183A0200D442E15F4A0134944200D14EE101205D4A69083A4028400843D507054357089A4629E706000E43B5
:4052400000D017E714E72900114300D1F9E1802109030A431203120B3BE701235B429846C4446346002B72D1691A8D429B413F1A5B42FF1A0D0068E702000A4300D107E78A
:40528000012252429046C4446246002A00D0E6E06918A942B6413F187642F7190D00BAE7002E00D080E0621C5205520D012A00DCF9E06A1A91464D45B6413A1A7642921BB2
:4052C0009046120200D499E04D1BA9428941C71B49427A1A90469A463CE752460123002513400022F5E6280000F0ACFA20300300083B1F2B00DC39E72A0028388240002544
:405300009C4200DC3EE7264FE41A1740C0E60143481E81410022C9B210E7002E00D0F1E0621C94465205520D012A00DCA0E01B4A944500D1C5E06918A94292413F185242DC
:40534000D2194908D5070D4357086446A0E6134B9C4200D0D9E69BE611001F3CE1400C00202B00D180E04021CB1A9A4015436A1E95410027254300241FE763460200203B40
:40538000DA406346202B71D0402366469B1B98400143481E814111430022CFE6FF070000FFFF7FFFFFFF0F80002C48D0CA4CA24200D1A2E07442A1468024240427434C4665
:4053C000382C00DDDBE01F2C00DD44E14E462024A41B3E00A640A246B0464C462E00E640B4464646644626435446A5406C1EA54134002C434D46EF400D1B28E04A464346AF
:405400004D461A4300D0A5E6002300240025DEE61F2A5ADC66462022921B060096409146B04662460E00D640424616434A4691404A1E9141020060463143C240E4E63C00C2
:405440002C435AD0F443A146002C52D14D1BA9428941C71B49427F1A14009A4675E69E4A944200D0C7E613E600227FE700208FE7002C00D0C8E03B002B4300D10FE1030051
:405480000B4300D104E66918A9429B413F185B42DF193B0200D41AE1904B0D001F406446F6E59A4689E63A002A43002C5CD1002A75D102000A4300D1CAE007000D009A465A
:4054C000E6E564460022002581E662460600203AD6406246B046202A00D1B7E040226646921B904001434246481E8141114300228AE6794CA24200D061E707000D001400CD
:405500009A46C5E5002C41D13C002C4378D0F443A146002C20D0704CA24271D04C46382C00DDB2E01F2C00DDBCE02026341BA2463C005646B4404E46A0462C00F440A4465F
:40554000444666463443A4465446A54064466E1EB54125434C46E7406D188D4289413F184942CF19140056E6002A2FD102000A4300D184E007000D009A46574C88E53D435E
:405580006F1EBD41ECB200270D1B60E7524CA24236D0744280263604A1463743BEE702000A4300D174E56A1A90464545B6413A1A7642921B9446120200D4F7E54D1BA9420A
:4055C0008941C71B49427F1A9A4661E502000A433AD0ED087C072C438025FA082D032A4208D0C7082F4205D145072C003A009A46C9080C43670FD200E5001743364C47E55D
:4056000007000D00140043E53A002A4343D002000A4319D0ED087C072C438025FA082D032A4207D0C6082E4204D147073C003200C9080C43D700620FE50017439A46264C5F
:4056400026E50022002544E5234C21E5002049E700230025BBE54C463E00203CE6404C46B446202C31D040244E46A61BB7403D436C1EA54164462C4300270D1BE7E6802260
:4056800000231203144C0025A1E53D436F1EBD410027EDB260E707000D000F4CF8E407000D00F5E44E463C00203EF440A0464C46202C0ED040244E46A41BA7403D436F1EA8
:4056C000BD4144460027254346E70027CFE70D0073E50027F2E7C046FF070000FFFF7FFF0B0330B5134D1A0B4B005B0DC90F0024AB4211DD104CA34210DC802464032243FD
:405700000E4CE41A1F2C0CDD0D48C31ADA4013005C42002900D11C00200030BD094BCC18FAE7E040084CA44663449A4013000343EEE7C046FE0300001D0400003304000038
:4057400013040000FFFFFF7FEDFBFFFF70B5002830D0C317C4185C40C50F200000F072F8174B184A1B1AD21A1F2A18DD164AD21A9440002224035B05240B5B0D002110000F
:4057800024030A0D1205240B1443104A1B0514401C436400ED0764082C43210070BD210091400A000B21081AC4405B052403240B5B0DE3E70025002300240022DEE7C046D1
:4057C0001E0400003304000013040000FFFF0F808446081C6146FFE71FB500F0BDF8002801D40021C8421FBD10B500F049F84042013010BD10B500F0AFF8002801DB0020BE
:4058000010BD012010BDC04610B500F0A5F8002801DD002010BD012010BDC04610B500F057F8002801DC002010BD012010BDC04610B500F04DF8002801DA002010BD012079
:4058400010BDC0461C2101231B04984201D3000C10391B0A984201D3000A08391B09984201D30009043902A2105C40187047C0460403020201010101000000000000000068
:40588000430270B542004C005D0AC30F4802120E460A240EC90FFF2A0FD0FF2C11D00120A24200D070BDB542FCD18B420DD0002AF8D12800431E9841F4E70120002DF1D12F
:4058C000EBE70120002EEDD1E9E70020EAE7C0464302F0B542005D0AC30F4802440A4800120E000EC90FFF2A1FD0FF2822D0002A09D16E426E4100280FD1002C0DD10020F1
:40590000002D09D005E0002801D1002C01D08B4213D0584201231843F0BD002EF7D048424141012049420843F6E7002DDDD002204042F1E7002CDAD0F9E78242E9DC04DBC6
:40594000A542E6D80020A542E6D25842434101205B421843E0E7C0464302F0B542004C005E0AC30F4802120E450A240EC90FFF2A17D0FF2C19D0002A0BD170427041002C91
:4059800017D0002807D048424141012049420843F0BD002C13D08B4214D0584201231843F6E70220002EF3D1E3E70220002DEFD1E1E7002DE5D10020002EE9D0EDE7002DFB
:4059C000E9D1EAE7A242E8DC04DBAE42E5D80020AE42DDD25842434101205B421843D7E7014B18687047C0464C0100200E4B70B500251E000D4CE41AA410A54204D0AB000C
:405A0000F35898470135F8E700F08CFB084B00251E00084CE41AA410A54204D0AB00F35898470135F8E770BD3061000030610000306100003861000003008218934202D0B2
:405A400019700133FAE7704700000000000000004C494D4954204849540A0D004368616E6765206C696D697420310A0D000000004368616E6765206C696D697420320A0D5B
:405A8000000000004279746525642025782020200000000049443A25782025782025780D0A00000000300F40000800400F4000088403850D860DD608DB04DD9058506008B3
:405AC00062A08C409850B050D60CD80CE2401001190135013601405449FF4AFF4BFF4F01501852805604580459045A0A5B0B5D995F016040624064406540668068806A8001
:405B00006C806E8082019201B001B601BE01C054C5ECC602C807C9FFCAFFCBFFCD83CE03CF01D018D401D80ADA0ADB0ADC09DD99DF01E040E240E440E540E680E880EA8040
:405B4000EC80EE8006800A800C0219401E801F80221033204280468048024C024D044F01568059405A205D045E805F016040700278087A807E2094409808A2A0C010C2183F
:405B8000CC04D081D218D6DCD801DE430F011F01310133013F01401545EC4602480749FF4AFF4BFF4F0150185280540159045A045B045F01604062406440654066806880AE
:405BC0006A806C806E80850189029401A802B101B202B502B601BE44BF11D804D904DB04DF0108081004194422112440272037403A203B083F8047404F85574059445A2236
:405C00005C405F0577408620872488048C08AA40AF80B720C204C402CC10CE16D010D210D6DFE208E608EE016A086B806D40DAC0DC208D40954096089F8096089F808780FF
:405C40009F80AE04E240EE102650C804B250EA05034004020A210C4484448A018E1094029F40AB40B401C00CC20FE202E601EA02110112011301000003000F4003320F40D3
:405C800009330F403B340F4024350F402B360F4023370F4005400F4004410F4002420F4005430F4002440F4002450F4010470F4003600F40030405060708090A0B0C0E0F5D
:405CC000101112131415161718191B1C1D1E1F2021222325262728292A2B2E2F303132333435000000000000080088000000000001000000080088000000000002000000F9
:405D000008008800000000000300000008008800000000000400000008008800000000000500000008008800000000000600000008008800000000000700000008008800EA
:405D40000000000000000000A8008000FFFFFFFF0000000001000000A8008000FFFFFFFF0000000002000000A8008000FFFFFFFF00000000030000000000000000000000B1
:405D800000000000040000000000000000000000000000000500000000000000000000000000000006000000000000000000000000000000070000000000000000000000CD
:405DC0000000000008000000000000000000000000000000090000000000000000000000000000000A0000000000000000000000000000000B00000000000000000000007D
:405E0000000000000C0000000000000000000000000000000D0000000000000000000000000000000E0000000000000000000000000000000F00000000000000000000002C
:405E400000000000FB21F93FFB2109407CD91240FB2119407A6A1F407CD92240BBFD2540FB2129403A462C407A6A2F405C4731407CD932409C6B3440BBFD3540DB8F37400E
:405E8000FB2139401BB43A403A463C405AD83D407A6A3F404C7E40405C4741406C1042407CD942408CA243409C6B4440AC344540BBFD4540CBC64640DB8F4740EB58484002
:405EC000FB21494083F9A200444E6E00FC291500D1572700DD34F50062DBC0003C999500419043006351FE00BBDEAB00B761C5003A6E2400D24D42004906E00009EA2E0085
:405F00001C92D100EB1DFE0029B11C00E83EA700F535820044BB2E009CE98400B4267000417E5F00D6913900538339009CF439008B5F840028F9BD00F81F3B00DEFF970045
:405F40000F980500112FEF000A5A8B006D1F6D00CF7E360009CB2700464FB7009E663F002DEA5F00BA277500E5EBC7003D7BF100F739070092528A00FB6BEA001FB15F0021
:405F8000085D8D00300356007BFC4600F0AB6B0020BCCF0036F49A00E3A91D005E619100081BE60085996500A0145F008D40680080D8FF0027734D0006063100CA561500B7
:405FC000C9A873007BE260006B8CC000020000000300000004000000060000000000000000000040FB21F93F000000002D44743E000000809846F83C0000006051CC783BC1
:4060000000000080831BF0390000004020257A38000000802282E336000000001DF36935E237000006370000C43700009C370000C437000090370000C43700009C37000043
:406040000637000006370000903700009C370000483800004838000048380000CA3700000637000006370000B03700009A370000B037000090370000B03700009A370000F3
:406080000637000006370000903700009A37000048380000483800004838000054380000EC440000BA430000C0440000B0430000C0440000CA440000C0440000B043000095
:4060C000BA430000BA430000CA440000B0430000A6430000A6430000A64300001C470000344D0000F44B0000F44B0000F24B00000C4D00000C4D0000FE4C0000F24B000012
:406100000C4D0000FE4C00000C4D0000F24B0000144D0000144D0000144D0000144F000043000000F8B5C046F8BC08BC9E467047DD020000E5080000F8B5C046F8BC08BCA0
:406140009E467047B502000058610000C00000209000000038020000000000000A0003000918120624210000010000000000204E409C000028000000005A6202F0000000BE
:406180000404040000000000000000000000000000000000000000000000000000000000000000002061000000000000000000000000000000000000000000000000000052
:4061C000000000000000000000000000000000000000000000000000000000000000000000000000EC00002000000000000000000000000000000000000000000000000093
:40620000000000000000000000000000000000000000000000000000000000000000000000000000000000000000000000000000000000000000000000000000000000005E
:40624000000000000000000000000000000000000000000000000000000000000000000000000000000000000000000000000000000000000000000000000000000000001E
:4062800000000000000000000000000000000000000000000000000000000000000000000000000000000000000000000000000000000000000000000000000000000000DE
:4062C000000000000000000000000000000000000000000000000000000000000000000000000000000000000000000000000000000000000000000000000000000000009E
:020000040003F7
:0200000490303A
:02000000E0E737
:0200000490402A
:4000000000000000000000000000000000000000000000000000000000000000000000000000000000000000000000000000000000000000000000000000000000000000C0
:400040000000000000000000000000000000000000000000000000000000000000000000000000000000000000000000000000000000000000000000000000000000000080
:0200000490501A
:0C0000000002101111A000011030F28766
:0200000490600A
:0100000001FE
:00000001FF