:4000000000800020110000003D0800003D08000010B500F01BFCC04610B51222204B1A60302000F059FE1F4A1F4B1A6000241F4B1C601F4B1F4A1A601F49204A1160204AED
:400040001A60C02149011F4A11601F4A1A60802149001E4A11601E4A1A60E02149011D4A11601D4A1A60802212061C4B1A601C4A1C4B1A60C0221C4B1A607E3A1B4B1A6038
:40008000013A1B4B1A6002321A4B1A601A49082000F046FD082000F02DFD184B1C6010BD300010400600008004010B40000301400000014040FF0080007F1A0600050140E7
:4000C000C0FF00800803014042FF00800403014041FF00800C03014043FF008008010B404902040000010B404C010140100101400C01014008010140550F00000C020B4076
:4001000010B572B60122414B1A7000240FE040486200131959000B00411889881A5AC31858880004104300F083FB0134E4B2012CEDD937490C313748543000F04FFB802254
:400140005200354B1A80FF3A344B1A70344A354B1A60354A354B1A60EE221202344B1A609922344B1A605532334B1A6099231B04324A1360324A1360324A1360324A1360F9
:40018000324A1360324A13600721324B1960324B1960324803783C22934314221343DBB203702F4A107816230343DBB2137002232C4A13602C482D4A10602D482D4A106043
:4001C00082202D4A10602D482D4A10602D4A136003202D4A10602D482D4A10602D4A136031202D4A10602D4A13602D4B1960992292002C4B1A6030222B4B1A602B4A2C4B61
:400200001A60FFF709FF00F003FB10BD1C700F40F4280000742A000000600F4002600F40AA00000800000240FFFF00000002024000030240000402400005024000500F40EF
:4002400010500F4020500F4040500F4050500F4070500F402000104000800F4001700F4000700F40000004403100040008000440B66D030008010440000204407162DB0049
:40028000080204401802044000030440929D240008030440000404400804044018040440000504400805044000060440496003000806044010B5064C2378002B07D1054BCA
:4002C000002B02D0044800E000BF0123237010BD50010020000000009C280000084B10B5002B03D00749084800E000BF07480368002B00D110BD064B002BFBD09847F9E77F
:4003000000000000540100209C280000C00000200000000010B50F4A1378013313700E4B1A7801321A705A7801325A709A780132D2B29A70D9780131D970022A02D9012006
:4003400001F086F9044B1B78022B02D9012001F03BFA10BD800100206C01002010B5104801F06AF900F0F4F80E4B197900F094F80D4B1B78002B06D001F074FA002802D0E8
:400380000A4801F059F90A4B1B78002B06D001F061FA002802D0074801F04EF910BDC046A02800006C0100206C020020AC280000F8010020C028000070B562B601F0FCFA43
:4003C00001F0EEFA134C6071C00801252840C343D8B201F03DF9607901235840284001F0F3F96179042000F0EFF801F095FB01F051F901F0ABF801F093FA01F037FB0648F9
:4004000001F0C0FA054801F017FA054801F062FB70BDC0466C0100205D0500005D0300001503000000B583B0FFF7C6FF0A2000F0AFFB01236A461370002353709370D370A3
:4004400013710521684601F08BFB01F075FB002000F0D2FD002000F0DBFD012000F0E4FD002000F0EDFD002000F0F6FD012000F0FFFD074AD3880133D380064B0020185E6F
:4004800000F086FB01F0ACF901F0E2F8DFE7C0466C010020C400002010B50400002902D101F084FA00E000200022254B1A70002C06DA830704D4224B5A7064425C600BE0EB
:4004C000002C06DDC30704D41D4B01225A705C6002E000221A4B5A60194B5B68002B0FD001F01EFA164B586802F054F8011C154801F08EFD144901F08BFD144B186016E0E5
:400500000022124B1A60002000F076FD002000F07FFD002000F088FD002000F091FD002000F09AFD002000F0A3FD01F0ADF9074B186801F055FD80B201F0BAF910BDC046D4
:400540008001002000409C4D00007A4484020020014B0420185E70478001002070B5184A117A5378CB185BB21372002B03DA0522134B1A7204E0052B02DD0022104B1A72A8
:400580000F4B1B7A5BB20F4AD45C01252800204000F032FD6008284000F03AFDA008284000F042FDE008284000F04AFD2009284000F052FD6009284000F05AFD70BDC04611
:4005C00080010020C8000020F8B504000D0000F093FF0F2020401A4E30603F212940194B1960194C00252570800108434005E060164FA760164B1B686360200000F048FE2C
:4006000001232370E560A760124B1B686360200000F03EFE022323703368DB06FC22D2041343E360A7600C4B1B686360200000F02FFE00F029FD09491D2000F071FAF8BD71
:40064000880200209C0200208C020020FFFF1F80A0002F40C0002F40E0002F40B1060000124A93780133DBB293709378DBB20F2B02D900220D4B9A700C4B1B78002B0BD037
:400680000A4A53780133DBB253705378DBB20F2B02D90022054B5A70044A537891785B1A59424B41DBB213707047C0469101002070B580225201444B1A60444B1B68DA079B
:4006C00006D49A0706D45A0706D41B0706D406E0002404E0012402E0022400E003243C4B9A78D2B264013B4B9C4664442368DB0202D46168490D02E06168C90889B2364B25
:40070000500082189000C152314A9178C9B22068000C0F2528404D0069188D005D19A8709178C9B2A5682D0E4800411888001818C5709178C9B2A068000CC0B24D006918E2
:400740008D005D1928719178C9B2A068000AC0B24D0069188D005D1968719178C9B2A568EDB2480041188800181885719178C9B2E5682D0E4800411888001818C571917808
:40078000C9B2E068000CC0B24D0069188D005D1928729178C9B2E068000AC0B24D0069188D005D1968729278D2B2E068C0B251008A1891005B189872FFF752FF226801235C
:4007C0001343236070BDC04600002F4008002F4091010020A0002F40A0020020F0B50025002711E0BB00C658F3B2FF22964308E06A008A181478A419527822700135013B1F
:40080000DBB2002BF4D101370E2FEBD9F0BDC0460323044A1360044A13600022034B1A607047C0463000304030003140000E3F4010B50A00002102F029F810BD10B501F0AC
:40084000F9FF03680C2B00D1FEE7FEE770B50F4E0F4D13E029686B68AC68002202E001C901C30432A242FAD1E868002202E0002102C304328242FAD11035013E002EE9D118
:4008800001F0DEFFFFF7CEFDFEE7C046010000003C2D000010B50E4A136801218B43136000230AE0032B03D89A000A49505800E009489900094A885001332F2BF2D9FFF76A
:4008C0001FFC034A116801230B43136010BDC04600001040000000003D08000000000020074B1B78272B05D8064B1B78DBB2064A136004E0054B1B78DBB2034A1360704797
:4009000002F3FF0F42F3FF0F20FF0B40C1F1FF0F00230AE0204A12683F210A401F49C95C8A4201D1033303E001332D2BF2D903231B4A12781B2A16D8302B05D1194B1B78A1
:40094000DBB2194A136006E0182B04D1174B1B78DBB2154A136016490B681F229343173A13430B6016E0302B05D1124B1B78DBB20D4A136006E0182B04D10F4B1B78DBB2E1
:40098000094A13600A4A13681F218B430B4909780B4313607047C0462CFF0B40042B000002F3FF0F3FF3FF0F28FF0B403EF3FF0F34FF0B40C3F1FF0FC2F1FF0FC0F1FF0FE8
:4009C00000230AE00D4A12683F210A400C49C95C8A4201D1033303E001332D2BF2D9032308490868084A02400A60084A944663441B78DBB2064A13607047C0462CFF0B4019
:400A0000042B000000002240FFFFFFBF4DF3FF0F28FF0B40034B18688023DB05184000D0012070470000224010B50B4A136801218B431360094B1A68094B1A60094A12688D
:400A40005A60FFF765FFFFF74BFF074A116802230B43136010BDC04650000C4034FF0B409801002020FF0B4024002C4030B500230AE0134A12683F210A401249C95C8A4213
:400A800001D1033303E001332D2BF2D903230E490A68022082430A600C4C21681F2291430B4805682A400A4322604168094A1160094A944663441B78DBB2084A136030BDB2
:400AC0002CFF0B40042B000024002C4034FF0B409801002020FF0B404DF3FF0F28FF0B40034B1B680220184000D001207047C04624002C401F2318401E3B8340014A136063
:400B00007047C04600E100E01F2318401E3B8340014A13607047C04680E100E001BE704770B504000D001F2802D90020FFF7F6FF1034A40080239B059C466444206825602A
:400B400070BDC04670B504000E00032902D90020FFF7E4FF1F2C02D90020FFF7DFFF03252540ED00063501F05CF8A408A400074B9C46644421680323AB4099430B00310019
:400B8000A9401943216001F050F870BD00E400E010B5040006E0084B586801F039F8074B9C46644480231B029C42F4D8024B9868604301F02DF810BDD00000200080FFFFDA
:400BC00070B582B000F070F9002862D001F029F80500314A116801230B43136000230AE02E4A12683F210A402D49C95C8A4201D1033303E001332D2BF2D903230021294AEF
:400C00001160294A1268D20606D1274802681F318A4313390A430260244C2168244A1140244A5A438023DB019C466244D20B013A5205520D0B001343A022520313432360CD
:400C40001D4B1B680193302000F0F2FF1B4A13688021C9050B4313602668194B1E40002407E00120FFF794FF1034A30533430F4A1360EE2CF5D90120FFF78AFFFF239B0537
:400C80001E430A4B1E60019A0B4B1A60280000F0CCFF02B070BDC04650000C402CFF0B40042B000028FF0B4034FF0B400800224000F800C040420F00300010400000224007
:400CC000FFFF3FC010B5034B1B7B584300F0A0FF10BDC046D0000020F0B55F4656464D464446F0B483B0040000F09BFF0190FFF791FE002804D0FFF763FE01239A4601E0AB
:400D000000239A46FFF7ECFE002808D0182C01D0302C07D1FFF7AAFE01239B4604E000239B4601E000239B46E61E2D2E74D8464B1B78DBB29C4208D8444B1B78DBB299466F
:400D4000434B1B78DBB2984631E0424B1B78DBB29C4208D8404B1B78DBB299463F4B1B78DBB2984623E03E4B1B78DBB29C4208D83C4B1B78DBB299463B4B1B78DBB29846E5
:400D800015E03A4B1B78DBB29C4208D8384B1B78DBB29946374B1B78DBB2984607E0364B1B78DBB29946354B1B78DBB29846344B9F5D2F2F09D92A2C07D91922314B1A60D2
:400DC000052000F025FF192503E02E4B1D683F231D40BD4206D92A4B9A5D2A4B1A60052000F016FF254B9C4664442378DBB2264A1360264B4A461A60254B42461A60052062
:400E0000FFF760FFBD420AD21D4B9A5D1D4B1A60052000F0FDFE02E00020FFF77FFE5346012B01D1FFF7CCFE5B46012B01D1FFF7FBFD019800F0F9FE03B03CBC90469946F8
:400E4000A246AB46F0BDC04640F3FF0F41F3FF0F42F3FF0F43F3FF0F44F3FF0F45F3FF0F46F3FF0F47F3FF0F48F3FF0F49F3FF0F4AF3FF0F4BF3FF0F4CF3FF0F4DF3FF0FFD
:400E8000042B00002CFF0B4028FF0B401CFF0B4020FF0B40034B1868C0231B02184000D00120704700010B40034B1B68002B01DA012000E0002070470000224010B500F06B
:400EC000B0FE044A1368C02109020B43136000F0ACFE10BD00010B4010B500F0A2FE08490A68084B1A408024E40122430A600A6813408022120213430B6000F096FE10BD71
:400F000000010B40FF3FFFFF70B5050000F089FE0400FFF7BFFF002803D0FFF7DDFF012100E0002108482840084A1568084B2B40184310601368012901D1FFF7BFFF200085
:400F400000F073FE70BDC0460404040010020B40FBFBFBFF10B5244B1B685B0715D5234B5B685B070ED5224B596A042001401F4C62688A4362605A6A82435A629B69002B3E
:400F800000D098470420FFF7BFFF174B1B685B0518D5164B5B685B0510D5154B596A8022D2001140114842688A434260596A114A0A405A62DB69002B00D098478020C00013
:400FC000FFF7A2FF084B1B685B030CD5074B5B685B0304D5064B1B6A002B00D098478020C002FFF791FF10BD10020B40E4000020B8010020FFFBFFFF04490A68D2B22023DC
:401000009A43400118401043086070470001044004490A68D2B210239A43000118401043086070470001044004490A68D2B208239A43C00018401043086070470001044006
:4010400004490A68D2B204239A43800018401043086070470001044004490A68D2B202239A434000184010430860704700010440044A1368DBB201218B43084018431060AD
:401080007047C04600010440054B1A6801210A431A601B68194201D1012000E00020704704002F4010B50E4A0E4B1A60FFF7ECFF1D20FFF71FFD0C4A116801230B431360A4
:4010C000F0231B0100E0013B002B03D0064A1268D207F8D5002B01D1012000E0002010BD0110000000002F4010002F4003B2002B0DDB094A1168094B0B400004034313605D
:401100001268074B1340984203D0012002E0022000E000207047C04614002F40FFFF00800000FF7F002809D10C4B19680C4A0A401A601B68DB040CD501300DE0074B1A6859
:40114000802149010A431A601B680B4203D1012002E0002000E000207047C04614002F40FFEFFFFF70B5841EE4B20D2C35D88C1EE4B2052C03D9002B31D1012931D1032A54
:4011800031D8904231D3914231D31C4D2C68240AE4B20F26B44320432E68194C3440000204432C602C686040F0242401204220D1002B00D002234901C9B29200D2B21143D6
:4011C00019430E4A1368EE2083430B4313601368034099420FD0ED380EE002200CE002200AE0022008E0022006E0022004E0022002E0012000E0002070BDC04614002F4093
:40120000FFF0FFFF002809D10B4B1A6810218A431A601B6819420BD001300CE0064B1A6810210A431A601B68194203D1012002E0002000E00020704714002F40002809D1BD
:401240000B4B1A6801218A431A601B6819420BD001300CE0064B1A6801210A431A601B68194203D1012002E0002000E00020704714002F40054B18601B681B041B0C984221
:4012800001D0012000E000207047C04604002F4010B503785B01204A944663441F4A41680A431A6003785B01634419681C4A11401C4A44682240914224D182681A610378DA
:4012C0005B0163441A6981688A421DD1C2685A6103785B0163445A69C1688A4216D1012252429A6103785B0163449A6901320FD10022DA6103785B016344DB69002B09D05A
:40130000012008E0012006E0012004E0012002E0012000E0002010BDA0002F40800080007F007F007FFF7FFF10B503781B01104A944663440F4A41680A431A6003781B0107
:40134000634419680C4A11400C4A4468224091420AD182685A6003781B0163445A6883689A4203D0012002E0012000E0002010BD20002F4008008000F7007F00F7FF7FFF5C
:4013800070B500240AE063001B199800104B1818FFF7CAFF002805D10134E4B2072CF2D9002500E00125002D0BD00FE0230108486030C018FFF76CFF002806D10134E4B291
:4013C00000E000240F2CF1D900E00125280070BD342B0000002809D10C4B19680C4A0A401A601B689B040CD501300DE0074B1A68802189010A431A601B680B4203D101208A
:4014000002E0002000E000207047C04614002F40FFDFFFFF10B580221206334B1A60334A136801218B431360C8231B0200E0013B002B03D02D4A1268D207F8D4002B49D0C0
:401440001D20FFF761FB2A491D20FFF769FB03211D20FFF777FB1F20FFF748FE002819D1FFF760FE002817D1FFF7B4FF002815D10023012201210630FFF774FE00280FD154
:40148000FFF7C0FE00280DD1FFF7D8FE00280BD001230AE0012308E0012306E0012304E0012302E0012300E00023002B14D1FFF767FF002812D10F48FFF7DCFE00280FD1A4
:4014C0000A4B1A6807218A431A601B68194209D0013008E0012006E0012004E0012002E0012000E0002010BD00042F4010002F40211500000110000010B5084B1B78002BCA
:4015000002D1FFF787FF00E00020002804D10122024B1A70FFF7C6FD10BDC046E00100207047C04610B500F075F810BD10B500F01DF810BD10B5044A1368802109060B4309
:401540001360FFF7EFFF10BD0000244010B5064B1B78002B04D1FFF7E9FF0122024B1A70FFF7E8FF10BDC046E2010020154A164B1A600023154A13601549164A1160164AF1
:4015800016490A6007201649086016490B6006381549086015490A60154A13600421154A1160154A1360154A1360154A1360154A1360154A1360154A13601268144B1A80B8
:4015C0007047C0460B000002000024404000244001000A00480024400700008000032440040324401003244044002440000224400402244050002440880E2440C80E244032
:40160000480F2440080F2440C80F2440880F2440E401002005490B68F0229343603A13430B60034B1A88034B1A60704700040240E4010020880F244070B50500002402E050
:4016400000F020FB0134285D0028F9D170BDC04604490A687F231A40C301D8B2104308607047C0460002044010B50B20FFF742FA10BDC04610B500F01DF810BD10B5044A1A
:401680001368802109060B431360FFF7EDFF10BD0000264010B5064B1B78002B04D1FFF7E9FF0122024B1A70FFF7E8FF10BDC046E801002010B50024184B1C60184A194B61
:4016C0001A60194B194A1360194A1460194A1460194A1360194B1C600B20FFF715FA03210B20FFF72FFA16490B20FFF719FA154B1C60154B1C60154B1C60154B1C60154BD1
:401700001C60154B1C601022144B1A70144B1C80144B1C60144B1C6010BDC046000026407708008060002640070100800003264004032640100326400002264004022640DC
:40174000A11C0000C80E2640880E2640480F2640080F2640C80F2640880F26406003002076030020800300207803002010B50E4A13685B005B08136000230C490B600C49A5
:401780000B600C4804680C49214001600B490B600B490B6010210B4B19701368802109060B43136010BDC04600002640680026406C00264060002640FF5CFFFF880F264078
:4017C000C80F26406003002004490A68D2B210239A430001184010430860704700060440024B1868C00801231840704704050440014B58647047C0460000002010B50400FE
:4018000000F00FFA044A1168044B0B40A4031C43146000F00AFA10BD00E400E0FF3FFFFF0222014B1A60704700E100E00222014B1A60704780E100E010B50400FFF7F6FF1B
:401840002000FFF7D5FF0320FFF7D8FFFFF7E8FF10BDC046024B1868400801231840704704030440024B1B68012018407047C04604030440034A117880235B420B43DBB209
:401880001370704774000F40024A11787F230B401370704774000F40014B18707047C04685000F40014B1878C0B2704765000F40014B18807047C04648100F40014B18881A
:4018C00080B2704788100F40014B18807047C04608100F4010B501E0FFF7F0FFFFF7E2FF0307F9D410BDC04610B54024FF342000FFF7DEFF2000FFF7E7FF00F092F9074AED
:40190000117810230B43DBB2137000F08EF9FFF7E1FF0020FFF7C0FF10BDC04695000F4010B5064B1B78002B04D1FFF7DDFF0122024B1A70FFF79EFF10BDC046F0010020C8
:40194000014B18647047C0460000002010B5040000F067F9044A1368C0218B43A4011C43146000F062F910BD00E400E00122014B1A60704700E100E00122014B1A607047DC
:4019800080E100E010B50400FFF7F6FF2000FFF7D7FF0320FFF7DAFFFFF7E8FF10BDC046014B1878C0B2704767000F40014B1878C0B2704764000F4010B500F032F9044A03
:4019C000117810230B43DBB2137000F02EF910BD94000F40034A117880235B420B43DBB21370704776000F40014B18707047C04686000F40014B1878C0B2704766000F40F6
:401A0000014B18707047C04626000F40014B1878C0B2704746000F40014B18707047C04606000F4010B501E0FFF7F0FFFFF7E2FF0307F9D410BDC04610B50420FFF7E0FF56
:401A40000420FFF7E9FF00F0ECF8074A117810230B43DBB2137000F0E8F8FFF7E3FF0120FFF7C2FF10BDC04696000F4010B5064B1B78002B04D1FFF7DFFF0122024B1A7076
:401A8000FFF7A8FF10BDC046F1010020014B98647047C0460000002010B5040000F0C1F8044A1168044B0B40A4051C43146000F0BCF810BD00E400E0FFFF3FFF0422014B4D
:401AC0001A60704700E100E00422014B1A60704780E100E010B50400FFF7F6FF2000FFF7D5FF0320FFF7D8FFFFF7E8FF10BDC04610B500F081F810BD10B500F03DF810BD20
:401B000010B5044A1368802109060B431360FFF7EFFF10BD0000254010B5064B1B78002B04D1FFF7E9FF0122024B1A70FFF7E8FF10BDC046F2010020014B18687047C046C3
:401B400040032540044B1B681F221340082BF9D0024B18607047C046080225404002254070B506000D00002403E0305DFFF7EAFF0134AC42F9D370BD104A114B1A600122A9
:401B8000104B1A60104B114A13600721104A1160104A13600023104A1360104A1360104A1360104A1360104A1360104A1360104A136012680F4B1A807047C0460F0000016E
:401BC00000002540200025400701008000032540040325400002254004022540880E2540C80E2540480F2540080F2540C80F2540880F2540F4010020024B1A88024B1A605C
:401C00007047C046F4010020880F2540000000000230800803D00138FDD1C046C046C0467047EFF3108072B6704780F31088704770B50400FFF7F5FF0500102C05D8104ADB
:401C4000136803218B43136016E0202C07D80C490B6803229343023A13430B600CE0302C07D807490B6803229343013A13430B6002E00020FEF752FF2800FFF7D6FF70BD5A
:401C800030001040044B1B681F221340082BF9D0024B18607047C046080224404002244010B5AF4B1B68002B00D09847AD4B1B68DB0702D50022AC4B1A60AC4B1B789B069E
:401CC00028D5AB4B1B68DB0507D5AA4A1188C0239B000B431380012300E00023A44A1268D20706D5A34A118890239B000B4313800123002B0FD09D4A1278D20701D501225D
:401D000000E002229B49088802430A800021974A117000E00023954A1278920600D417E1934A1268D20611D51022934B1A608F4B1B78DB0701D5012300E002238D4A1188AC
:401D40000B4313801022894B1A7007E1874A1278120720D5864A126892070AD50222864B1A60844A118888239B000B431380012311E07E4A1278D20703D525217B4A11703E
:401D800009E02421794A11707C4A1268002A02D014397B4A1160754A1278520700D4AEE0724A1278D20749D5764A1268120727D5754A1268754909681F240C40744909683D
:401DC0006418141B082C09D8002C16D1714A1168714B0B401360012308340EE008240CE06B4A11686D48006841186D480068C0B20870116801311160013C002CF0D119E012
:401E0000604A1268520715D5614A116863480068411863480068C0B208701168013111601168594A1268914203D204215D4A116000E001235C495D4A116060E04C4A126806
:401E4000920726D502224C4B1A6059490B681D321A40096880231B020B4000D001239B18544A1168CB1A13601268534B1A60414A118884239B000B431380504B1A688021B2
:401E800049020A431A6019684D4A0A401A60012335E04C4A1268D2061ED427E0454A1168364A126891421DD2344A1268013A414909688A4204D1402243490A6030490A604C
:401EC0003C4A11684148006841180978C9B240480160116801311160354A12681F210A40082ADBD11021384A116008E0354A1268520604D52F4B1A682F4B1A600123002BC2
:401F00002CD0244A1168244B0B4013600023314A13601B4A1360304B1B789B070ED5134B1B78DB0701D5092300E00A23114A11880B43138060220D4B1A700FE0274B1B6816
:401F40009B0601D5182200E01022164B1A6005E0064B1B78DB0601D4FFF708FC10BDC046EC0100208C0E2640880E2640600300200C0F264076030020000F264068030020D1
:401F8000880F2640CC0F264070030020080326408003002060002640FFFEFFFF6C0300204003264068002640ED0F0000C00F2640080226407C03002078030020040226402E
:401FC000FFFFFEFF8C0F2640800F26406403002040022640C80F264074030020640026409E2110B5C905041C00F04CFB002803D1201C00F0ADFA10BD9E21201CC90500F025
:4020000021F900F0A5FA80231B069C466044F2E7F0B5564644465F464D46F0B444024600C70F83B08846650A360EBA463DD0FF2E22D00023EC00802599469B46ED0425431E
:402040007F3E43465C025800DB0F640A000E984636D0FF2830D080230021E400DB041C437F38301A0190484642460843724E800030587A4013008746002D44D1082399466C
:40208000063B9B46DDE70122FF2000241A406402C305640AD2071C431443200003B03CBC90469946A246AB46F0BD002D20D104239946033B9B46C4E7002C17D1022102E042
:4020C000002C0AD10121321A01924A4643460A435A48920082587B409746200000F0DCFA431F76309C4040420021BAE70321B8E7280000F0D1FA431F9D4000237630464288
:4021000099469B469DE70C239946093B9B4698E780240022E403FF20B9E70024C2468B465A465346022AAED0032A7DD0012A31D1012200201A400024A9E70122101A1B28D5
:4021400056DD1A4000200024A1E78023DB031D424BD18023DB032B435C02640A3A00FF2095E76D016001854230D2019A0024013A01921B220127290064006D00002901DBF1
:40218000A84201D82D1A3C43013A002AF3D16A1E95412C4301987F300028CEDD620704D00F222240042A00D00434220103D5244A019814408030FE2800DD64E70122A40163
:4021C000640AC0B21A4062E72C00A9E72D1A1A220124CFE76B02BCD500248023DB031C436402640A4246FF2051E71C42B3D1F4E721002022C140101A8440621E94410C43DA
:40220000620704D00F222240042A00D00434620104D5012201201A40002438E70122A401640A1A40002032E78023DB031C436402640A5246FF202AE7942C0000D42C000076
:40224000FFFFFFF7F8B54A024E0043024400240EC50F9B09360EC90F9209FF2E00D183E001204140A01BA9425CD0002800DC95E0002E1CD1002A00D081E05A0704D00F220F
:402280001A40042A00D004335A013BD50134FF2C00D191E001209B015B0AE4B205405B02E4055B0AED0723432B431800F8BDFF2CE3D08021C9040A431B2800DD90E0160006
:4022C0002021C640081A8240511E8A4132439B1A5A0115D59B019E09300000F0DDF90538864084426CDC041B330020200134E340041BA640721E964100243343BDE70D001F
:402300005A07BCD1DF0801231D40FF2C33D1002F00D190E08022D20313003B435B025B0AFF24BCE700284FDD002E2ED0FF2CA4D08025ED042A431B2800DD97E01600202504
:40234000C640281A8240501E824132439B185A01D5D50134FF2C6DD001227B481A405B08034013430D0088E7002A00D07AE777E7031EC5D100257B025B0AE4B28FE70138E4
:402380000028A4D0FF2C97D177E7002A00D174E701380028DAD0FF2CCDD16EE7002821D1601CC0B2012858DD80279E1AFF0437402FD0D61A0D008FE701231D4000236EE767
:4023C000624B241A334058E7002851D1601CC6B2012E33DDFF282DD09B185B0804004CE7012274E7002C1AD0FF2E1FD08024E404404223431B2800DD96E01D002024C54032
:40240000201A8340581E83412B43D31A34000D005EE7002E00D05FE700250024ABE7002B44D0C0430028F0D0FF2EE3D11300FF240D0022E70D00FF24002330E7002C5DD14A
:40244000002B7DD0002A00D117E79B185A0100D456E73E4A040013400FE7002C1ED1002B2FD1002A65D013000D0006E701226DE7002C1FD1002B59D0C04300280BD0FF2E2B
:402480004FD01B285EDC1D002024C540201A8340581E83412B439B18340058E7002B1CD1002A49D013000D00FF24E6E6130034000D00E2E6FF2E34D08024E4044042234324
:4024C000DFE7002A00D1D8E68027981AFF04074000D14DE7D31A0D00CFE6FF24002A00D1CBE68020DB08C003034204D0D208024201D113000D00DB00FF24BEE6002B10D01B
:40250000FF24002A00D1B8E68020DB08C003034203D0D208024200D11300DB000D00FF24ABE61300FF24A8E601236EE713003400A3E6002700251EE780270025FF03E9E6E8
:4025400013009AE60123A6E7FFFFFF7DFFFFFFFB4302590A4300C20F1B0E00207E2B0EDD9D2B0DDC802000040143952B0BDC9620C31AD9400B005842002A00D118007047B1
:40258000034BD018FBE7963B99400B00F3E7C046FFFFFF7F70B5002830D0C317C5185D40C40F280000F078F89E231B1A962B0DDC9622D21A95406A02520AD8B25202C00572
:4025C000520AE40702432243100070BD992B19DC9922D21A9540124A2A40690704D00F210D40042D00D00432510103D50C4B1A409F231B1A9201520AD8B2DFE70024002065
:402600000022DBE705222E00121AB921D6402A00C91A8A40551EAA4135001543DBE7C046FFFFFFFB8446081C6146FFE71FB500F0BDF8002801D40021C8421FBD10B500F016
:4026400049F84042013010BD10B500F0AFF8002801DB002010BD012010BDC04610B500F0A5F8002801DD002010BD012010BDC04610B500F057F8002801DC002010BD012008
:4026800010BDC04610B500F04DF8002801DA002010BD012010BDC0461C2101231B04984201D3000C10391B0A984201D3000A08391B09984201D30009043902A2105C401848
:4026C0007047C04604030202010101010000000000000000430270B542004C005D0AC30F4802120E460A240EC90FFF2A0FD0FF2C11D00120A24200D070BDB542FCD18B4272
:402700000DD0002AF8D12800431E9841F4E70120002DF1D1EBE70120002EEDD1E9E70020EAE7C0464302F0B542005D0AC30F4802440A4800120E000EC90FFF2A1FD0FF284C
:4027400022D0002A09D16E426E4100280FD1002C0DD10020002D09D005E0002801D1002C01D08B4213D0584201231843F0BD002EF7D048424141012049420843F6E7002D78
:40278000DDD002204042F1E7002CDAD0F9E78242E9DC04DBA542E6D80020A542E6D25842434101205B421843E0E7C0464302F0B542004C005E0AC30F4802120E450A240ECD
:4027C000C90FFF2A17D0FF2C19D0002A0BD170427041002C17D0002807D048424141012049420843F0BD002C13D08B4214D0584201231843F6E70220002EF3D1E3E70220FC
:40280000002DEFD1E1E7002DE5D10020002EE9D0EDE7002DE9D1EAE7A242E8DC04DBAE42E5D80020AE42DDD25842434101205B421843D7E7014B18687047C0464C0100208F
:402840000E4B70B500251E000D4CE41AA410A54204D0AB00F35898470135F8E700F05CFA084B00251E00084CE41AA410A54204D0AB00F35898470135F8E770BD242D0000E2
:40288000242D0000242D00002C2D000003008218934202D019700133FAE77047000000004C494D4954204849540A0D004368616E6765206C696D697420310A0D00000000FC
:4028C0004368616E6765206C696D697420320A0D000000004279746525642025782020200000000049443A25782025782025780D0A00000000300F40000800400F4000089D
:402900008403850D860DD608DB04DD905850600862A08C409850B050D60CD80CE2401001190135013601405449FF4AFF4BFF4F01501852805604580459045A0A5B0B5D99AF
:402940005F016040624064406540668068806A806C806E8082019201B001B601BE01C054C5ECC602C807C9FFCAFFCBFFCD83CE03CF01D018D401D80ADA0ADB0ADC09DD9932
:40298000DF01E040E240E440E540E680E880EA80EC80EE8006800A800C0219401E801F80221033204280468048024C024D044F01568059405A205D045E805F016040700206
:4029C00078087A807E2094409808A2A0C010C218CC04D081D218D6DCD801DE430F011F01310133013F01401545EC4602480749FF4AFF4BFF4F0150185280540159045A0440
:402A00005B045F016040624064406540668068806A806C806E80850189029401A802B101B202B502B601BE44BF11D804D904DB04DF01080810041944221124402720374076
:402A40003A203B083F8047404F85574059445A225C405F0577408620872488048C08AA40AF80B720C204C402CC10CE16D010D210D6DFE208E608EE016A086B806D40DAC0A9
:402A8000DC208D40954096089F8096089F8087809F80AE04E240EE102650C804B250EA05034004020A210C4484448A018E1094029F40AB40B401C00CC20FE202E601EA02B5
:402AC000110112011301000003000F4003320F4009330F403B340F4024350F402B360F4023370F4005400F4004410F4002420F4005430F4002440F4002450F4010470F405A
:402B000003600F40030405060708090A0B0C0E0F101112131415161718191B1C1D1E1F2021222325262728292A2B2E2F303132333435000000000000080088000000000063
:402B40000100000008008800000000000200000008008800000000000300000008008800000000000400000008008800000000000500000008008800000000000600000070
:402B8000080088000000000007000000080088000000000000000000A8008000FFFFFFFF0000000001000000A8008000FFFFFFFF0000000002000000A8008000FFFFFFFF7F
:402BC00000000000030000000000000000000000000000000400000000000000000000000000000005000000000000000000000000000000060000000000000000000000C3
:402C0000000000000700000000000000000000000000000008000000000000000000000000000000090000000000000000000000000000000A000000000000000000000072
:402C4000000000000B0000000000000000000000000000000C0000000000000000000000000000000D0000000000000000000000000000000E000000000000000000000022
:402C8000000000000F0000000000000000000000000000006221000086200000442100001C2100004421000010210000442100001C21000086200000862000001021000085
:402CC0001C210000C8210000C8210000C82100004A2100008620000086200000302100001A2100003021000010210000302100001A2100008620000086200000102100000E
:402D00001A210000C8210000C8210000C8210000D421000043000000F8B5C046F8BC08BC9E467047DD02000095080000F8B5C046F8BC08BC9E467047B5020000502D000029
:402D4000C0000020900000003802000000000000000000000A0003000918120624210000010000000000204E409C000028000000005A6202F00000000404040000000000F1
:402D800000000000000000000000000000000000000000000000000000000000142D00000000000000000000000000000000000000000000000000000000000000000000D2
:402DC00000000000000000000000000000000000000000000000000000000000EC0000200000000000000000000000000000000000000000000000000000000000000000C7
:402E00000000000000000000000000000000000000000000000000000000000000000000000000000000000000000000000000000000000000000000000000000000000092
:402E40000000000000000000000000000000000000000000000000000000000000000000000000000000000000000000000000000000000000000000000000000000000052
:402E80000000000000000000000000000000000000000000000000000000000000000000000000000000000000000000000000000000000000000000000000000000000012
:402EC00000000000000000000000000000000000000000000000000000000000000000000000000000000000000000000000000000000000000000000000000000000000D2
:020000040003F7
:0200000490303A
:020000004D3879
:0200000490402A
:4000000000000000000000000000000000000000000000000000000000000000000000000000000000000000000000000000000000000000000000000000000000000000C0
:400040000000000000000000000000000000000000000000000000000000000000000000000000000000000000000000000000000000000000000000000000000000000080
:0200000490501A
:0C0000000002101111A00001101F5ED8BA
:0200000490600A
:0100000001FE
:00000001FF